{
  "_format": "hh-sol-artifact-1",
  "contractName": "OfferEscrow",
  "sourceName": "contracts/escrow/OfferEscrow.sol",
  "abi": [
    {
      "inputs": [
        {
          "components": [
            {
              "internalType": "enum IFoxMarketCommon.TokenType",
              "name": "offerTokenType",
              "type": "uint8"
            },
            {
              "internalType": "address",
              "name": "escrow",
              "type": "address"
            },
            {
              "internalType": "address",
              "name": "market",
              "type": "address"
            },
            {
              "internalType": "address",
              "name": "seller",
              "type": "address"
            },
            {
              "internalType": "address",
              "name": "offerToken",
              "type": "address"
            },
            {
              "internalType": "uint256",
              "name": "offerTokenId",
              "type": "uint256"
            },
            {
              "internalType": "address",
              "name": "saleToken",
              "type": "address"
            },
            {
              "internalType": "uint256",
              "name": "offerAmount",
              "type": "uint256"
            },
            {
              "internalType": "uint256",
              "name": "saleAmount",
              "type": "uint256"
            },
            {
              "internalType": "uint256",
              "name": "fee",
              "type": "uint256"
            },
            {
              "internalType": "uint256",
              "name": "cooldown",
              "type": "uint256"
            }
          ],
          "internalType": "struct IFoxMarketCommon.Offer",
          "name": "offer",
          "type": "tuple"
        }
      ],
      "stateMutability": "nonpayable",
      "type": "constructor"
    },
    {
      "inputs": [],
      "name": "cancel",
      "outputs": [],
      "stateMutability": "nonpayable",
      "type": "function"
    },
    {
      "inputs": [],
      "name": "fee",
      "outputs": [
        {
          "internalType": "uint256",
          "name": "",
          "type": "uint256"
        }
      ],
      "stateMutability": "view",
      "type": "function"
    },
    {
      "inputs": [
        {
          "internalType": "address",
          "name": "buyer",
          "type": "address"
        },
        {
          "internalType": "uint256",
          "name": "marketFee",
          "type": "uint256"
        },
        {
          "components": [
            {
              "internalType": "address[]",
              "name": "destinations",
              "type": "address[]"
            },
            {
              "internalType": "uint256[]",
              "name": "shares",
              "type": "uint256[]"
            },
            {
              "internalType": "uint256",
              "name": "total",
              "type": "uint256"
            }
          ],
          "internalType": "struct IFoxMarketCommon.FeeDistribution",
          "name": "feeDistribution",
          "type": "tuple"
        }
      ],
      "name": "fill",
      "outputs": [],
      "stateMutability": "nonpayable",
      "type": "function"
    },
    {
      "inputs": [],
      "name": "getOfferDetails",
      "outputs": [
        {
          "components": [
            {
              "internalType": "enum IFoxMarketCommon.TokenType",
              "name": "offerTokenType",
              "type": "uint8"
            },
            {
              "internalType": "address",
              "name": "escrow",
              "type": "address"
            },
            {
              "internalType": "address",
              "name": "market",
              "type": "address"
            },
            {
              "internalType": "address",
              "name": "seller",
              "type": "address"
            },
            {
              "internalType": "address",
              "name": "offerToken",
              "type": "address"
            },
            {
              "internalType": "uint256",
              "name": "offerTokenId",
              "type": "uint256"
            },
            {
              "internalType": "address",
              "name": "saleToken",
              "type": "address"
            },
            {
              "internalType": "uint256",
              "name": "offerAmount",
              "type": "uint256"
            },
            {
              "internalType": "uint256",
              "name": "saleAmount",
              "type": "uint256"
            },
            {
              "internalType": "uint256",
              "name": "fee",
              "type": "uint256"
            },
            {
              "internalType": "uint256",
              "name": "cooldown",
              "type": "uint256"
            }
          ],
          "internalType": "struct IFoxMarketCommon.Offer",
          "name": "",
          "type": "tuple"
        }
      ],
      "stateMutability": "view",
      "type": "function"
    },
    {
      "inputs": [],
      "name": "lockedUntil",
      "outputs": [
        {
          "internalType": "uint256",
          "name": "",
          "type": "uint256"
        }
      ],
      "stateMutability": "view",
      "type": "function"
    },
    {
      "inputs": [],
      "name": "market",
      "outputs": [
        {
          "internalType": "address",
          "name": "",
          "type": "address"
        }
      ],
      "stateMutability": "view",
      "type": "function"
    },
    {
      "inputs": [],
      "name": "offerAmount",
      "outputs": [
        {
          "internalType": "uint256",
          "name": "",
          "type": "uint256"
        }
      ],
      "stateMutability": "view",
      "type": "function"
    },
    {
      "inputs": [],
      "name": "offerToken",
      "outputs": [
        {
          "internalType": "address",
          "name": "",
          "type": "address"
        }
      ],
      "stateMutability": "view",
      "type": "function"
    },
    {
      "inputs": [],
      "name": "offerTokenId",
      "outputs": [
        {
          "internalType": "uint256",
          "name": "",
          "type": "uint256"
        }
      ],
      "stateMutability": "view",
      "type": "function"
    },
    {
      "inputs": [],
      "name": "returnUnlocked",
      "outputs": [],
      "stateMutability": "nonpayable",
      "type": "function"
    },
    {
      "inputs": [],
      "name": "saleAmount",
      "outputs": [
        {
          "internalType": "uint256",
          "name": "",
          "type": "uint256"
        }
      ],
      "stateMutability": "view",
      "type": "function"
    },
    {
      "inputs": [],
      "name": "saleToken",
      "outputs": [
        {
          "internalType": "address",
          "name": "",
          "type": "address"
        }
      ],
      "stateMutability": "view",
      "type": "function"
    },
    {
      "inputs": [],
      "name": "seller",
      "outputs": [
        {
          "internalType": "address",
          "name": "",
          "type": "address"
        }
      ],
      "stateMutability": "view",
      "type": "function"
    },
    {
      "inputs": [
        {
          "internalType": "bytes4",
          "name": "interfaceId",
          "type": "bytes4"
        }
      ],
      "name": "supportsInterface",
      "outputs": [
        {
          "internalType": "bool",
          "name": "",
          "type": "bool"
        }
      ],
      "stateMutability": "view",
      "type": "function"
    },
    {
      "inputs": [],
      "name": "tokenType",
      "outputs": [
        {
          "internalType": "enum IFoxMarketCommon.TokenType",
          "name": "",
          "type": "uint8"
        }
      ],
      "stateMutability": "view",
      "type": "function"
    }
  ],
  "bytecode": "0x6101806040523480156200001257600080fd5b506040516200179838038062001798833981016040819052620000359162000144565b60408101516001600160a01b0390811660a09081526060830151821660c09081526080840151831660e05290830151610100908152908301519091166101205281015161014052805160028111156200009257620000926200020c565b6080816002811115620000a957620000a96200020c565b9052506101208101516101605260800151600180546001600160a01b0319166001600160a01b0390921691909117905562000222565b60405161016081016001600160401b03811182821017156200011157634e487b7160e01b600052604160045260246000fd5b60405290565b8051600381106200012757600080fd5b919050565b80516001600160a01b03811681146200012757600080fd5b600061016082840312156200015857600080fd5b62000162620000df565b6200016d8362000117565b81526200017d602084016200012c565b602082015262000190604084016200012c565b6040820152620001a3606084016200012c565b6060820152620001b6608084016200012c565b608082015260a083015160a0820152620001d360c084016200012c565b60c082015260e0838101519082015261010080840151908201526101208084015190820152610140928301519281019290925250919050565b634e487b7160e01b600052602160045260246000fd5b60805160a05160c05160e05161010051610120516101405161016051611453620003456000396000818161028701526104b30152600081816101f30152818161048d015261076c0152600081816102ae01528181610456015281816107eb0152610ebe01526000818161026001526104300152600081816102280152610408015260008181610127015281816103e00152818161069b015281816107bc0152818161092101528181610cf801528181610daf0152610e490152600081816101cc015281816103b8015281816104ec015281816107270152610c5801526000818161017b01528181610376015281816105360152818161085d01528181610a0901528181610b3701528181610be201528181610c990152610d6701526114536000f3fe608060405234801561001057600080fd5b50600436106100f55760003560e01c80638aae995a11610097578063dc17923e11610066578063dc17923e1461025b578063ddca3f4314610282578063e985e367146102a9578063ea8a1af0146102d057600080fd5b80638aae995a146101ee57806397e1963614610223578063b8974d551461024a578063ce0617ec1461025257600080fd5b806330fa738c116100d357806330fa738c146101765780634b1e5884146101aa57806350e180ce146101b457806380f55605146101c757600080fd5b806301ffc9a7146100fa57806308551a53146101225780630ab0210c14610161575b600080fd5b61010d610108366004610fa0565b6102d8565b60405190151581526020015b60405180910390f35b6101497f000000000000000000000000000000000000000000000000000000000000000081565b6040516001600160a01b039091168152602001610119565b61016961030f565b6040516101199190611009565b61019d7f000000000000000000000000000000000000000000000000000000000000000081565b60405161011991906110e0565b6101b26104e1565b005b6101b26101c2366004611209565b61071c565b6101497f000000000000000000000000000000000000000000000000000000000000000081565b6102157f000000000000000000000000000000000000000000000000000000000000000081565b604051908152602001610119565b6101497f000000000000000000000000000000000000000000000000000000000000000081565b610215610b32565b61021560005481565b6102157f000000000000000000000000000000000000000000000000000000000000000081565b6102157f000000000000000000000000000000000000000000000000000000000000000081565b6101497f000000000000000000000000000000000000000000000000000000000000000081565b6101b2610c4d565b60006001600160e01b031982166367ea7e9560e01b148061030957506301ffc9a760e01b6001600160e01b03198316145b92915050565b6040805161016081018252600080825260208201819052918101829052606081018290526080810182905260a0810182905260c0810182905260e08101829052610100810182905261012081018290526101408101919091526040518061016001604052807f000000000000000000000000000000000000000000000000000000000000000060028111156103a6576103a6610fd1565b81523060208201526001600160a01b037f0000000000000000000000000000000000000000000000000000000000000000811660408301527f0000000000000000000000000000000000000000000000000000000000000000811660608301527f0000000000000000000000000000000000000000000000000000000000000000811660808301527f000000000000000000000000000000000000000000000000000000000000000060a08301527f00000000000000000000000000000000000000000000000000000000000000001660c082015260e001610486610b32565b81526020017f000000000000000000000000000000000000000000000000000000000000000081526020017f000000000000000000000000000000000000000000000000000000000000000081526020016000815250905090565b336001600160a01b037f000000000000000000000000000000000000000000000000000000000000000016146105325760405162461bcd60e51b815260040161052990611319565b60405180910390fd5b60007f0000000000000000000000000000000000000000000000000000000000000000600281111561056657610566610fd1565b146105b35760405162461bcd60e51b815260206004820152601f60248201527f4f66666572457363726f773a3a4e6f742061206c6f636b6564206f66666572006044820152606401610529565b6001546040516370a0823160e01b81523060048201526000916001600160a01b0316906370a0823190602401602060405180830381865afa1580156105fc573d6000803e3d6000fd5b505050506040513d601f19601f820116820180604052508101906106209190611349565b9050600081116106815760405162461bcd60e51b815260206004820152602660248201527f4f66666572457363726f773a3a4e6f20756e6c6f636b656420746f6b656e2062604482015265616c616e636560d01b6064820152608401610529565b60015460405163a9059cbb60e01b81526001600160a01b037f000000000000000000000000000000000000000000000000000000000000000081166004830152602482018490529091169063a9059cbb906044016020604051808303816000875af11580156106f4573d6000803e3d6000fd5b505050506040513d601f19601f820116820180604052508101906107189190611362565b5050565b336001600160a01b037f000000000000000000000000000000000000000000000000000000000000000016146107645760405162461bcd60e51b815260040161052990611319565b6000610790837f000000000000000000000000000000000000000000000000000000000000000061139a565b905061079d848484610e73565b6040516323b872dd60e01b81526001600160a01b0385811660048301527f000000000000000000000000000000000000000000000000000000000000000081166024830152604482018390527f000000000000000000000000000000000000000000000000000000000000000016906323b872dd906064016020604051808303816000875af1158015610834573d6000803e3d6000fd5b505050506040513d601f19601f820116820180604052508101906108589190611362565b5060007f0000000000000000000000000000000000000000000000000000000000000000600281111561088d5761088d610fd1565b03610a05576001546040516370a0823160e01b81523060048201526000916001600160a01b0316906370a0823190602401602060405180830381865afa1580156108db573d6000803e3d6000fd5b505050506040513d601f19601f820116820180604052508101906108ff9190611349565b905080156109a05760015460405163a9059cbb60e01b81526001600160a01b037f000000000000000000000000000000000000000000000000000000000000000081166004830152602482018490529091169063a9059cbb906044016020604051808303816000875af115801561097a573d6000803e3d6000fd5b505050506040513d601f19601f8201168201806040525081019061099e9190611362565b505b60015460405163a3a7e7f360e01b81526001600160a01b0387811660048301529091169063a3a7e7f390602401600060405180830381600087803b1580156109e757600080fd5b505af11580156109fb573d6000803e3d6000fd5b5050505050610b26565b60017f00000000000000000000000000000000000000000000000000000000000000006002811115610a3957610a39610fd1565b03610acd576001546001600160a01b031663a9059cbb85610a58610b32565b6040516001600160e01b031960e085901b1681526001600160a01b03909216600483015260248201526044016020604051808303816000875af1158015610aa3573d6000803e3d6000fd5b505050506040513d601f19601f82011682018060405250810190610ac79190611362565b50610b26565b60405162461bcd60e51b815260206004820152602860248201527f4f66666572457363726f773a3a45524331313535206e6f7420696d706c656d656044820152671b9d1959081e595d60c21b6064820152608401610529565b836001600160a01b0316ff5b6000807f00000000000000000000000000000000000000000000000000000000000000006002811115610b6757610b67610fd1565b03610bde57600154604051635a46d3b560e01b81523060048201526001600160a01b0390911690635a46d3b5906024015b602060405180830381865afa158015610bb5573d6000803e3d6000fd5b505050506040513d601f19601f82011682018060405250810190610bd99190611349565b905090565b60017f00000000000000000000000000000000000000000000000000000000000000006002811115610c1257610c12610fd1565b03610c47576001546040516370a0823160e01b81523060048201526001600160a01b03909116906370a0823190602401610b98565b50600090565b336001600160a01b037f00000000000000000000000000000000000000000000000000000000000000001614610c955760405162461bcd60e51b815260040161052990611319565b60007f00000000000000000000000000000000000000000000000000000000000000006002811115610cc957610cc9610fd1565b03610d63576000610cd8610b32565b1115610d5e5760015460405163a3a7e7f360e01b81526001600160a01b037f0000000000000000000000000000000000000000000000000000000000000000811660048301529091169063a3a7e7f390602401600060405180830381600087803b158015610d4557600080fd5b505af1158015610d59573d6000803e3d6000fd5b505050505b610e47565b60017f00000000000000000000000000000000000000000000000000000000000000006002811115610d9757610d97610fd1565b03610acd576001546001600160a01b031663a9059cbb7f0000000000000000000000000000000000000000000000000000000000000000610dd6610b32565b6040516001600160e01b031960e085901b1681526001600160a01b03909216600483015260248201526044016020604051808303816000875af1158015610e21573d6000803e3d6000fd5b505050506040513d601f19601f82011682018060405250810190610e459190611362565b505b7f00000000000000000000000000000000000000000000000000000000000000006001600160a01b0316ff5b60005b815151811015610f9a576000826040015183602001518381518110610e9d57610e9d6113ad565b602002602001015185610eb091906113c3565b610eba91906113e2565b90507f00000000000000000000000000000000000000000000000000000000000000006001600160a01b03166323b872dd8685600001518581518110610f0257610f026113ad565b60209081029190910101516040516001600160e01b031960e085901b1681526001600160a01b03928316600482015291166024820152604481018490526064016020604051808303816000875af1158015610f61573d6000803e3d6000fd5b505050506040513d601f19601f82011682018060405250810190610f859190611362565b50508080610f9290611404565b915050610e76565b50505050565b600060208284031215610fb257600080fd5b81356001600160e01b031981168114610fca57600080fd5b9392505050565b634e487b7160e01b600052602160045260246000fd5b6003811061100557634e487b7160e01b600052602160045260246000fd5b9052565b60006101608201905061101d828451610fe7565b602083015161103760208401826001600160a01b03169052565b50604083015161105260408401826001600160a01b03169052565b50606083015161106d60608401826001600160a01b03169052565b50608083015161108860808401826001600160a01b03169052565b5060a083015160a083015260c08301516110ad60c08401826001600160a01b03169052565b5060e083810151908301526101008084015190830152610120808401519083015261014092830151929091019190915290565b602081016103098284610fe7565b80356001600160a01b038116811461110557600080fd5b919050565b634e487b7160e01b600052604160045260246000fd5b6040516060810167ffffffffffffffff811182821017156111435761114361110a565b60405290565b604051601f8201601f1916810167ffffffffffffffff811182821017156111725761117261110a565b604052919050565b600067ffffffffffffffff8211156111945761119461110a565b5060051b60200190565b600082601f8301126111af57600080fd5b813560206111c46111bf8361117a565b611149565b82815260059290921b840181019181810190868411156111e357600080fd5b8286015b848110156111fe57803583529183019183016111e7565b509695505050505050565b60008060006060848603121561121e57600080fd5b611227846110ee565b92506020808501359250604085013567ffffffffffffffff8082111561124c57600080fd5b908601906060828903121561126057600080fd5b611268611120565b82358281111561127757600080fd5b8301601f81018a1361128857600080fd5b80356112966111bf8261117a565b81815260059190911b8201860190868101908c8311156112b557600080fd5b928701925b828410156112da576112cb846110ee565b825292870192908701906112ba565b845250505082840135828111156112f057600080fd5b6112fc8a82860161119e565b858301525060408301356040820152809450505050509250925092565b602080825260169082015275151bdad95b93d999995c8e8e939bdd081b585c9ad95d60521b604082015260600190565b60006020828403121561135b57600080fd5b5051919050565b60006020828403121561137457600080fd5b81518015158114610fca57600080fd5b634e487b7160e01b600052601160045260246000fd5b8181038181111561030957610309611384565b634e487b7160e01b600052603260045260246000fd5b60008160001904831182151516156113dd576113dd611384565b500290565b6000826113ff57634e487b7160e01b600052601260045260246000fd5b500490565b60006001820161141657611416611384565b506001019056fea26469706673582212207fa96f644d268bb95831b00d2222282d74c36eb0007383caa65684b116e2305c64736f6c63430008100033",
  "linkReferences": {},
  "deployedLinkReferences": {}
}