{
  "_format": "hh-sol-artifact-1",
  "contractName": "FoxMarket",
  "sourceName": "contracts/escrow/FoxMarket.sol",
  "abi": [
    {
      "inputs": [],
      "stateMutability": "nonpayable",
      "type": "constructor"
    },
    {
      "anonymous": false,
      "inputs": [
        {
          "indexed": false,
          "internalType": "address",
          "name": "previousAdmin",
          "type": "address"
        },
        {
          "indexed": false,
          "internalType": "address",
          "name": "newAdmin",
          "type": "address"
        }
      ],
      "name": "AdminChanged",
      "type": "event"
    },
    {
      "anonymous": false,
      "inputs": [
        {
          "indexed": true,
          "internalType": "address",
          "name": "beacon",
          "type": "address"
        }
      ],
      "name": "BeaconUpgraded",
      "type": "event"
    },
    {
      "anonymous": false,
      "inputs": [
        {
          "indexed": false,
          "internalType": "address",
          "name": "newAddress",
          "type": "address"
        },
        {
          "indexed": false,
          "internalType": "address",
          "name": "caller",
          "type": "address"
        }
      ],
      "name": "DevAddressUpdate",
      "type": "event"
    },
    {
      "anonymous": false,
      "inputs": [
        {
          "indexed": false,
          "internalType": "address",
          "name": "newAddress",
          "type": "address"
        },
        {
          "indexed": false,
          "internalType": "address",
          "name": "caller",
          "type": "address"
        }
      ],
      "name": "EscrowFeeAddressUpdate",
      "type": "event"
    },
    {
      "anonymous": false,
      "inputs": [
        {
          "indexed": true,
          "internalType": "address",
          "name": "from",
          "type": "address"
        },
        {
          "indexed": true,
          "internalType": "address",
          "name": "to",
          "type": "address"
        },
        {
          "indexed": true,
          "internalType": "address",
          "name": "token",
          "type": "address"
        },
        {
          "indexed": false,
          "internalType": "uint256",
          "name": "amount",
          "type": "uint256"
        }
      ],
      "name": "FeeDistributed",
      "type": "event"
    },
    {
      "anonymous": false,
      "inputs": [
        {
          "indexed": false,
          "internalType": "uint8",
          "name": "version",
          "type": "uint8"
        }
      ],
      "name": "Initialized",
      "type": "event"
    },
    {
      "anonymous": false,
      "inputs": [
        {
          "indexed": false,
          "internalType": "address",
          "name": "tokenOffer",
          "type": "address"
        },
        {
          "indexed": true,
          "internalType": "address",
          "name": "seller",
          "type": "address"
        },
        {
          "indexed": true,
          "internalType": "address",
          "name": "offerToken",
          "type": "address"
        },
        {
          "indexed": false,
          "internalType": "uint256",
          "name": "offerTokenId",
          "type": "uint256"
        },
        {
          "indexed": false,
          "internalType": "address",
          "name": "saleToken",
          "type": "address"
        },
        {
          "indexed": false,
          "internalType": "uint256",
          "name": "offerAmount",
          "type": "uint256"
        },
        {
          "indexed": false,
          "internalType": "uint256",
          "name": "saleAmount",
          "type": "uint256"
        },
        {
          "indexed": false,
          "internalType": "enum IFoxMarketCommon.TokenType",
          "name": "offerTokenType",
          "type": "uint8"
        }
      ],
      "name": "OfferCancelled",
      "type": "event"
    },
    {
      "anonymous": false,
      "inputs": [
        {
          "indexed": false,
          "internalType": "address",
          "name": "tokenOffer",
          "type": "address"
        },
        {
          "indexed": true,
          "internalType": "address",
          "name": "seller",
          "type": "address"
        },
        {
          "indexed": true,
          "internalType": "address",
          "name": "offerToken",
          "type": "address"
        },
        {
          "indexed": false,
          "internalType": "uint256",
          "name": "offerTokenId",
          "type": "uint256"
        },
        {
          "indexed": false,
          "internalType": "address",
          "name": "saleToken",
          "type": "address"
        },
        {
          "indexed": false,
          "internalType": "uint256",
          "name": "saleAmount",
          "type": "uint256"
        },
        {
          "indexed": false,
          "internalType": "enum IFoxMarketCommon.TokenType",
          "name": "offerTokenType",
          "type": "uint8"
        }
      ],
      "name": "OfferCreated",
      "type": "event"
    },
    {
      "anonymous": false,
      "inputs": [
        {
          "indexed": false,
          "internalType": "address",
          "name": "tokenOffer",
          "type": "address"
        },
        {
          "indexed": true,
          "internalType": "address",
          "name": "seller",
          "type": "address"
        },
        {
          "indexed": true,
          "internalType": "address",
          "name": "buyer",
          "type": "address"
        },
        {
          "indexed": true,
          "internalType": "address",
          "name": "offerToken",
          "type": "address"
        },
        {
          "indexed": false,
          "internalType": "uint256",
          "name": "offerTokenId",
          "type": "uint256"
        },
        {
          "indexed": false,
          "internalType": "address",
          "name": "saleToken",
          "type": "address"
        },
        {
          "indexed": false,
          "internalType": "uint256",
          "name": "offerAmount",
          "type": "uint256"
        },
        {
          "indexed": false,
          "internalType": "uint256",
          "name": "saleAmount",
          "type": "uint256"
        },
        {
          "indexed": false,
          "internalType": "enum IFoxMarketCommon.TokenType",
          "name": "offerTokenType",
          "type": "uint8"
        }
      ],
      "name": "OfferFilled",
      "type": "event"
    },
    {
      "anonymous": false,
      "inputs": [
        {
          "indexed": true,
          "internalType": "address",
          "name": "by",
          "type": "address"
        },
        {
          "indexed": true,
          "internalType": "address",
          "name": "token",
          "type": "address"
        }
      ],
      "name": "OfferTokenSupportAdded",
      "type": "event"
    },
    {
      "anonymous": false,
      "inputs": [
        {
          "indexed": true,
          "internalType": "address",
          "name": "by",
          "type": "address"
        },
        {
          "indexed": true,
          "internalType": "address",
          "name": "token",
          "type": "address"
        }
      ],
      "name": "OfferTokenSupportRemoved",
      "type": "event"
    },
    {
      "anonymous": false,
      "inputs": [
        {
          "indexed": false,
          "internalType": "address",
          "name": "account",
          "type": "address"
        }
      ],
      "name": "Paused",
      "type": "event"
    },
    {
      "anonymous": false,
      "inputs": [
        {
          "indexed": true,
          "internalType": "bytes32",
          "name": "role",
          "type": "bytes32"
        },
        {
          "indexed": true,
          "internalType": "bytes32",
          "name": "previousAdminRole",
          "type": "bytes32"
        },
        {
          "indexed": true,
          "internalType": "bytes32",
          "name": "newAdminRole",
          "type": "bytes32"
        }
      ],
      "name": "RoleAdminChanged",
      "type": "event"
    },
    {
      "anonymous": false,
      "inputs": [
        {
          "indexed": true,
          "internalType": "bytes32",
          "name": "role",
          "type": "bytes32"
        },
        {
          "indexed": true,
          "internalType": "address",
          "name": "account",
          "type": "address"
        },
        {
          "indexed": true,
          "internalType": "address",
          "name": "sender",
          "type": "address"
        }
      ],
      "name": "RoleGranted",
      "type": "event"
    },
    {
      "anonymous": false,
      "inputs": [
        {
          "indexed": true,
          "internalType": "bytes32",
          "name": "role",
          "type": "bytes32"
        },
        {
          "indexed": true,
          "internalType": "address",
          "name": "account",
          "type": "address"
        },
        {
          "indexed": true,
          "internalType": "address",
          "name": "sender",
          "type": "address"
        }
      ],
      "name": "RoleRevoked",
      "type": "event"
    },
    {
      "anonymous": false,
      "inputs": [
        {
          "indexed": true,
          "internalType": "address",
          "name": "by",
          "type": "address"
        },
        {
          "indexed": true,
          "internalType": "address",
          "name": "token",
          "type": "address"
        }
      ],
      "name": "SaleTokenSupportAdded",
      "type": "event"
    },
    {
      "anonymous": false,
      "inputs": [
        {
          "indexed": true,
          "internalType": "address",
          "name": "by",
          "type": "address"
        },
        {
          "indexed": true,
          "internalType": "address",
          "name": "token",
          "type": "address"
        }
      ],
      "name": "SaleTokenSupportRemoved",
      "type": "event"
    },
    {
      "anonymous": false,
      "inputs": [
        {
          "indexed": false,
          "internalType": "address",
          "name": "account",
          "type": "address"
        }
      ],
      "name": "Unpaused",
      "type": "event"
    },
    {
      "anonymous": false,
      "inputs": [
        {
          "indexed": true,
          "internalType": "address",
          "name": "implementation",
          "type": "address"
        }
      ],
      "name": "Upgraded",
      "type": "event"
    },
    {
      "inputs": [],
      "name": "DEFAULT_ADMIN_ROLE",
      "outputs": [
        {
          "internalType": "bytes32",
          "name": "",
          "type": "bytes32"
        }
      ],
      "stateMutability": "view",
      "type": "function"
    },
    {
      "inputs": [
        {
          "internalType": "address",
          "name": "token",
          "type": "address"
        }
      ],
      "name": "addSupportedOfferToken",
      "outputs": [],
      "stateMutability": "nonpayable",
      "type": "function"
    },
    {
      "inputs": [
        {
          "internalType": "address",
          "name": "token",
          "type": "address"
        }
      ],
      "name": "addSupportedSaleToken",
      "outputs": [],
      "stateMutability": "nonpayable",
      "type": "function"
    },
    {
      "inputs": [
        {
          "internalType": "address",
          "name": "offerEscrow",
          "type": "address"
        }
      ],
      "name": "adminCancel",
      "outputs": [],
      "stateMutability": "nonpayable",
      "type": "function"
    },
    {
      "inputs": [
        {
          "internalType": "address",
          "name": "offerEscrow",
          "type": "address"
        }
      ],
      "name": "cancelOffer",
      "outputs": [],
      "stateMutability": "nonpayable",
      "type": "function"
    },
    {
      "inputs": [
        {
          "internalType": "address",
          "name": "escrow",
          "type": "address"
        },
        {
          "internalType": "address",
          "name": "seller",
          "type": "address"
        }
      ],
      "name": "cleanup",
      "outputs": [],
      "stateMutability": "nonpayable",
      "type": "function"
    },
    {
      "inputs": [
        {
          "internalType": "address",
          "name": "offerToken",
          "type": "address"
        },
        {
          "internalType": "uint256",
          "name": "offerTokenId",
          "type": "uint256"
        },
        {
          "internalType": "address",
          "name": "saleToken",
          "type": "address"
        },
        {
          "internalType": "uint256",
          "name": "offerAmount",
          "type": "uint256"
        },
        {
          "internalType": "uint256",
          "name": "saleAmount",
          "type": "uint256"
        }
      ],
      "name": "createERC1155Offer",
      "outputs": [],
      "stateMutability": "nonpayable",
      "type": "function"
    },
    {
      "inputs": [
        {
          "internalType": "address",
          "name": "offerToken",
          "type": "address"
        },
        {
          "internalType": "address",
          "name": "saleToken",
          "type": "address"
        },
        {
          "internalType": "uint256",
          "name": "saleAmount",
          "type": "uint256"
        }
      ],
      "name": "createERC20LockedOffer",
      "outputs": [],
      "stateMutability": "nonpayable",
      "type": "function"
    },
    {
      "inputs": [
        {
          "internalType": "address",
          "name": "offerToken",
          "type": "address"
        },
        {
          "internalType": "address",
          "name": "saleToken",
          "type": "address"
        },
        {
          "internalType": "uint256",
          "name": "offerAmount",
          "type": "uint256"
        },
        {
          "internalType": "uint256",
          "name": "saleAmount",
          "type": "uint256"
        }
      ],
      "name": "createERC20Offer",
      "outputs": [],
      "stateMutability": "nonpayable",
      "type": "function"
    },
    {
      "inputs": [],
      "name": "fee",
      "outputs": [
        {
          "internalType": "uint256",
          "name": "",
          "type": "uint256"
        }
      ],
      "stateMutability": "view",
      "type": "function"
    },
    {
      "inputs": [
        {
          "internalType": "address",
          "name": "_offerEscrow",
          "type": "address"
        }
      ],
      "name": "fillOffer",
      "outputs": [],
      "stateMutability": "nonpayable",
      "type": "function"
    },
    {
      "inputs": [],
      "name": "getActiveOffers",
      "outputs": [
        {
          "components": [
            {
              "internalType": "enum IFoxMarketCommon.TokenType",
              "name": "offerTokenType",
              "type": "uint8"
            },
            {
              "internalType": "address",
              "name": "escrow",
              "type": "address"
            },
            {
              "internalType": "address",
              "name": "market",
              "type": "address"
            },
            {
              "internalType": "address",
              "name": "seller",
              "type": "address"
            },
            {
              "internalType": "address",
              "name": "offerToken",
              "type": "address"
            },
            {
              "internalType": "uint256",
              "name": "offerTokenId",
              "type": "uint256"
            },
            {
              "internalType": "address",
              "name": "saleToken",
              "type": "address"
            },
            {
              "internalType": "uint256",
              "name": "offerAmount",
              "type": "uint256"
            },
            {
              "internalType": "uint256",
              "name": "saleAmount",
              "type": "uint256"
            },
            {
              "internalType": "uint256",
              "name": "fee",
              "type": "uint256"
            },
            {
              "internalType": "uint256",
              "name": "cooldown",
              "type": "uint256"
            }
          ],
          "internalType": "struct IFoxMarketCommon.Offer[]",
          "name": "offers",
          "type": "tuple[]"
        }
      ],
      "stateMutability": "view",
      "type": "function"
    },
    {
      "inputs": [],
      "name": "getFeeShares",
      "outputs": [
        {
          "components": [
            {
              "internalType": "address[]",
              "name": "destinations",
              "type": "address[]"
            },
            {
              "internalType": "uint256[]",
              "name": "shares",
              "type": "uint256[]"
            },
            {
              "internalType": "uint256",
              "name": "total",
              "type": "uint256"
            }
          ],
          "internalType": "struct IFoxMarketCommon.FeeDistribution",
          "name": "feeDistribution",
          "type": "tuple"
        }
      ],
      "stateMutability": "view",
      "type": "function"
    },
    {
      "inputs": [],
      "name": "getOffers",
      "outputs": [
        {
          "components": [
            {
              "internalType": "enum IFoxMarketCommon.TokenType",
              "name": "offerTokenType",
              "type": "uint8"
            },
            {
              "internalType": "address",
              "name": "escrow",
              "type": "address"
            },
            {
              "internalType": "address",
              "name": "market",
              "type": "address"
            },
            {
              "internalType": "address",
              "name": "seller",
              "type": "address"
            },
            {
              "internalType": "address",
              "name": "offerToken",
              "type": "address"
            },
            {
              "internalType": "uint256",
              "name": "offerTokenId",
              "type": "uint256"
            },
            {
              "internalType": "address",
              "name": "saleToken",
              "type": "address"
            },
            {
              "internalType": "uint256",
              "name": "offerAmount",
              "type": "uint256"
            },
            {
              "internalType": "uint256",
              "name": "saleAmount",
              "type": "uint256"
            },
            {
              "internalType": "uint256",
              "name": "fee",
              "type": "uint256"
            },
            {
              "internalType": "uint256",
              "name": "cooldown",
              "type": "uint256"
            }
          ],
          "internalType": "struct IFoxMarketCommon.Offer[]",
          "name": "offers",
          "type": "tuple[]"
        }
      ],
      "stateMutability": "view",
      "type": "function"
    },
    {
      "inputs": [
        {
          "internalType": "address",
          "name": "wallet",
          "type": "address"
        }
      ],
      "name": "getOffersOf",
      "outputs": [
        {
          "components": [
            {
              "internalType": "enum IFoxMarketCommon.TokenType",
              "name": "offerTokenType",
              "type": "uint8"
            },
            {
              "internalType": "address",
              "name": "escrow",
              "type": "address"
            },
            {
              "internalType": "address",
              "name": "market",
              "type": "address"
            },
            {
              "internalType": "address",
              "name": "seller",
              "type": "address"
            },
            {
              "internalType": "address",
              "name": "offerToken",
              "type": "address"
            },
            {
              "internalType": "uint256",
              "name": "offerTokenId",
              "type": "uint256"
            },
            {
              "internalType": "address",
              "name": "saleToken",
              "type": "address"
            },
            {
              "internalType": "uint256",
              "name": "offerAmount",
              "type": "uint256"
            },
            {
              "internalType": "uint256",
              "name": "saleAmount",
              "type": "uint256"
            },
            {
              "internalType": "uint256",
              "name": "fee",
              "type": "uint256"
            },
            {
              "internalType": "uint256",
              "name": "cooldown",
              "type": "uint256"
            }
          ],
          "internalType": "struct IFoxMarketCommon.Offer[]",
          "name": "offers",
          "type": "tuple[]"
        }
      ],
      "stateMutability": "view",
      "type": "function"
    },
    {
      "inputs": [
        {
          "internalType": "bytes32",
          "name": "role",
          "type": "bytes32"
        }
      ],
      "name": "getRoleAdmin",
      "outputs": [
        {
          "internalType": "bytes32",
          "name": "",
          "type": "bytes32"
        }
      ],
      "stateMutability": "view",
      "type": "function"
    },
    {
      "inputs": [
        {
          "internalType": "bytes32",
          "name": "role",
          "type": "bytes32"
        },
        {
          "internalType": "uint256",
          "name": "index",
          "type": "uint256"
        }
      ],
      "name": "getRoleMember",
      "outputs": [
        {
          "internalType": "address",
          "name": "",
          "type": "address"
        }
      ],
      "stateMutability": "view",
      "type": "function"
    },
    {
      "inputs": [
        {
          "internalType": "bytes32",
          "name": "role",
          "type": "bytes32"
        }
      ],
      "name": "getRoleMemberCount",
      "outputs": [
        {
          "internalType": "uint256",
          "name": "",
          "type": "uint256"
        }
      ],
      "stateMutability": "view",
      "type": "function"
    },
    {
      "inputs": [
        {
          "internalType": "bytes32",
          "name": "role",
          "type": "bytes32"
        },
        {
          "internalType": "address",
          "name": "account",
          "type": "address"
        }
      ],
      "name": "grantRole",
      "outputs": [],
      "stateMutability": "nonpayable",
      "type": "function"
    },
    {
      "inputs": [
        {
          "internalType": "bytes32",
          "name": "role",
          "type": "bytes32"
        },
        {
          "internalType": "address",
          "name": "account",
          "type": "address"
        }
      ],
      "name": "hasRole",
      "outputs": [
        {
          "internalType": "bool",
          "name": "",
          "type": "bool"
        }
      ],
      "stateMutability": "view",
      "type": "function"
    },
    {
      "inputs": [],
      "name": "initialize",
      "outputs": [],
      "stateMutability": "nonpayable",
      "type": "function"
    },
    {
      "inputs": [
        {
          "internalType": "address",
          "name": "token",
          "type": "address"
        }
      ],
      "name": "isSupportedOfferToken",
      "outputs": [
        {
          "internalType": "bool",
          "name": "",
          "type": "bool"
        }
      ],
      "stateMutability": "view",
      "type": "function"
    },
    {
      "inputs": [
        {
          "internalType": "address",
          "name": "token",
          "type": "address"
        }
      ],
      "name": "isSupportedSaleToken",
      "outputs": [
        {
          "internalType": "bool",
          "name": "",
          "type": "bool"
        }
      ],
      "stateMutability": "view",
      "type": "function"
    },
    {
      "inputs": [],
      "name": "maxFee",
      "outputs": [
        {
          "internalType": "uint256",
          "name": "",
          "type": "uint256"
        }
      ],
      "stateMutability": "view",
      "type": "function"
    },
    {
      "inputs": [],
      "name": "offerEscrows",
      "outputs": [
        {
          "internalType": "address[]",
          "name": "",
          "type": "address[]"
        }
      ],
      "stateMutability": "view",
      "type": "function"
    },
    {
      "inputs": [],
      "name": "pause",
      "outputs": [],
      "stateMutability": "nonpayable",
      "type": "function"
    },
    {
      "inputs": [],
      "name": "paused",
      "outputs": [
        {
          "internalType": "bool",
          "name": "",
          "type": "bool"
        }
      ],
      "stateMutability": "view",
      "type": "function"
    },
    {
      "inputs": [],
      "name": "proxiableUUID",
      "outputs": [
        {
          "internalType": "bytes32",
          "name": "",
          "type": "bytes32"
        }
      ],
      "stateMutability": "view",
      "type": "function"
    },
    {
      "inputs": [
        {
          "internalType": "address",
          "name": "destination",
          "type": "address"
        }
      ],
      "name": "removeFeeShare",
      "outputs": [],
      "stateMutability": "nonpayable",
      "type": "function"
    },
    {
      "inputs": [
        {
          "internalType": "address",
          "name": "token",
          "type": "address"
        }
      ],
      "name": "removeSupportedOfferToken",
      "outputs": [],
      "stateMutability": "nonpayable",
      "type": "function"
    },
    {
      "inputs": [
        {
          "internalType": "address",
          "name": "token",
          "type": "address"
        }
      ],
      "name": "removeSupportedSaleToken",
      "outputs": [],
      "stateMutability": "nonpayable",
      "type": "function"
    },
    {
      "inputs": [
        {
          "internalType": "bytes32",
          "name": "role",
          "type": "bytes32"
        },
        {
          "internalType": "address",
          "name": "account",
          "type": "address"
        }
      ],
      "name": "renounceRole",
      "outputs": [],
      "stateMutability": "nonpayable",
      "type": "function"
    },
    {
      "inputs": [
        {
          "internalType": "address",
          "name": "escrow",
          "type": "address"
        }
      ],
      "name": "returnUnlocked",
      "outputs": [],
      "stateMutability": "nonpayable",
      "type": "function"
    },
    {
      "inputs": [
        {
          "internalType": "bytes32",
          "name": "role",
          "type": "bytes32"
        },
        {
          "internalType": "address",
          "name": "account",
          "type": "address"
        }
      ],
      "name": "revokeRole",
      "outputs": [],
      "stateMutability": "nonpayable",
      "type": "function"
    },
    {
      "inputs": [
        {
          "internalType": "uint256",
          "name": "_fee",
          "type": "uint256"
        }
      ],
      "name": "setFee",
      "outputs": [],
      "stateMutability": "nonpayable",
      "type": "function"
    },
    {
      "inputs": [
        {
          "internalType": "address",
          "name": "destination",
          "type": "address"
        },
        {
          "internalType": "uint256",
          "name": "share",
          "type": "uint256"
        }
      ],
      "name": "setFeeShare",
      "outputs": [],
      "stateMutability": "nonpayable",
      "type": "function"
    },
    {
      "inputs": [],
      "name": "supportedTokens",
      "outputs": [
        {
          "internalType": "address[]",
          "name": "offer",
          "type": "address[]"
        },
        {
          "internalType": "address[]",
          "name": "sale",
          "type": "address[]"
        }
      ],
      "stateMutability": "view",
      "type": "function"
    },
    {
      "inputs": [
        {
          "internalType": "bytes4",
          "name": "interfaceId",
          "type": "bytes4"
        }
      ],
      "name": "supportsInterface",
      "outputs": [
        {
          "internalType": "bool",
          "name": "",
          "type": "bool"
        }
      ],
      "stateMutability": "view",
      "type": "function"
    },
    {
      "inputs": [],
      "name": "unpause",
      "outputs": [],
      "stateMutability": "nonpayable",
      "type": "function"
    },
    {
      "inputs": [
        {
          "internalType": "address",
          "name": "newImplementation",
          "type": "address"
        }
      ],
      "name": "upgradeTo",
      "outputs": [],
      "stateMutability": "nonpayable",
      "type": "function"
    },
    {
      "inputs": [
        {
          "internalType": "address",
          "name": "newImplementation",
          "type": "address"
        },
        {
          "internalType": "bytes",
          "name": "data",
          "type": "bytes"
        }
      ],
      "name": "upgradeToAndCall",
      "outputs": [],
      "stateMutability": "payable",
      "type": "function"
    }
  ],
  "bytecode": "0x60a0604052306080523480156200001557600080fd5b506200002062000026565b620000e8565b600054610100900460ff1615620000935760405162461bcd60e51b815260206004820152602760248201527f496e697469616c697a61626c653a20636f6e747261637420697320696e697469604482015266616c697a696e6760c81b606482015260840160405180910390fd5b60005460ff9081161015620000e6576000805460ff191660ff9081179091556040519081527f7f26b83ff96e1f2b6a682f133852f6798a09c465da95921460cefb38474024989060200160405180910390a15b565b608051615f756200012060003960008181610b7f01528181610bc2015281816111070152818161114a01526111e20152615f756000f3fe608060405260043610620002775760003560e01c80637ff118ef1162000153578063a217fddf11620000c5578063d4af070a1162000084578063d4af070a146200076b578063d547741f1462000790578063d7e3c5e414620007b5578063ddca3f4314620007da578063eb266fa814620007f3578063ee1247b8146200081a57600080fd5b8063a217fddf14620006bd578063b002249d14620006d4578063c543f33214620006fc578063ca15c8731462000721578063d2473f66146200074657600080fd5b80638456cb5911620001125780638456cb5914620005f8578063874e077a14620006105780639010d07c146200063557806391d1485414620006735780639b8a74f0146200069857600080fd5b80637ff118ef14620005595780638129fc1c146200057157806382d5f4a2146200058957806383d8534614620005ae578063844c404214620005d357600080fd5b80633be38c0d11620001ed578063564f360e11620001ac578063564f360e14620004a95780635c975abb14620004ce578063607df77514620004e857806369fe0e2d146200050d5780637e03a447146200053257600080fd5b80633be38c0d14620004165780633ee992ee146200043b5780633f4ba83a14620004625780634f1ef286146200047a57806352d1902d146200049157600080fd5b8063242402ec116200023a578063242402ec146200034e578063248a9ca314620003735780632f2ff15d14620003a757806336568abe14620003cc5780633659cfe614620003f157600080fd5b806301f59d16146200027c57806301ffc9a714620002a75780630932a84114620002dd5780630ff32b511462000304578063113830191462000329575b600080fd5b3480156200028957600080fd5b50620002946103e881565b6040519081526020015b60405180910390f35b348015620002b457600080fd5b50620002cc620002c636600462003b29565b6200083f565b60405190151581526020016200029e565b348015620002ea57600080fd5b5062000302620002fc36600462003b6b565b6200086d565b005b3480156200031157600080fd5b50620003026200032336600462003b6b565b620008cf565b3480156200033657600080fd5b50620002cc6200034836600462003b6b565b62000931565b3480156200035b57600080fd5b50620003026200036d36600462003b6b565b62000941565b3480156200038057600080fd5b50620002946200039236600462003b8b565b60009081526097602052604090206001015490565b348015620003b457600080fd5b5062000302620003c636600462003ba5565b62000aca565b348015620003d957600080fd5b5062000302620003eb36600462003ba5565b62000af3565b348015620003fe57600080fd5b50620003026200041036600462003b6b565b62000b75565b3480156200042357600080fd5b50620003026200043536600462003bd8565b62000c60565b3480156200044857600080fd5b506200045362000ef5565b6040516200029e919062003d2b565b3480156200046f57600080fd5b5062000302620010d7565b620003026200048b36600462003df5565b620010fd565b3480156200049e57600080fd5b5062000294620011d5565b348015620004b657600080fd5b5062000302620004c836600462003ea8565b6200128b565b348015620004db57600080fd5b5060335460ff16620002cc565b348015620004f557600080fd5b50620003026200050736600462003b6b565b620012b1565b3480156200051a57600080fd5b50620003026200052c36600462003b8b565b620015c7565b3480156200053f57600080fd5b506200054a620015ec565b6040516200029e919062003f1d565b3480156200056657600080fd5b506200045362001600565b3480156200057e57600080fd5b50620003026200175b565b3480156200059657600080fd5b5062000302620005a836600462003f32565b6200188a565b348015620005bb57600080fd5b5062000302620005cd36600462003f78565b62001a9b565b348015620005e057600080fd5b5062000302620005f236600462003b6b565b62001ac1565b3480156200060557600080fd5b506200030262001b23565b3480156200061d57600080fd5b50620003026200062f36600462003b6b565b62001b47565b3480156200064257600080fd5b506200065a6200065436600462003fab565b62001b6c565b6040516001600160a01b0390911681526020016200029e565b3480156200068057600080fd5b50620002cc6200069236600462003ba5565b62001b8d565b348015620006a557600080fd5b5062000302620006b736600462003b6b565b62001bb8565b348015620006ca57600080fd5b5062000294600081565b348015620006e157600080fd5b50620006ec62001da9565b6040516200029e92919062003fce565b3480156200070957600080fd5b50620003026200071b36600462003ff7565b62001dce565b3480156200072e57600080fd5b50620002946200074036600462003b8b565b6200206a565b3480156200075357600080fd5b50620004536200076536600462003b6b565b62002083565b3480156200077857600080fd5b50620003026200078a36600462003b6b565b620021bd565b3480156200079d57600080fd5b5062000302620007af36600462003ba5565b6200221f565b348015620007c257600080fd5b50620002cc620007d436600462003b6b565b62002248565b348015620007e757600080fd5b50620002946101295481565b3480156200080057600080fd5b506200080b62002258565b6040516200029e9190620040c0565b3480156200082757600080fd5b50620003026200083936600462003b6b565b620023c5565b60006001600160e01b031982166314ddbd7f60e01b1480620008675750620008678262002512565b92915050565b6200088760008051602062005f208339815191526200253a565b6200089561015e8262002546565b506040516001600160a01b0382169033907f3159470c494ff47af4729119b2953086f308549b78e843db11d3940a253a786190600090a350565b620008e960008051602062005f208339815191526200253a565b620008f761015e826200255d565b506040516001600160a01b0382169033907f67a75721a23c6acfd5903ee3f01fc96776bc5430f4b35fe8f7c44913a8bbe16c90600090a350565b60006200086761015e8362002574565b6200095b60008051602062005f208339815191526200253a565b620009696101638262002574565b620009915760405162461bcd60e51b81526004016200098890620040d5565b60405180910390fd5b60008190506000816001600160a01b0316630ab0210c6040518163ffffffff1660e01b815260040161016060405180830381865afa158015620009d8573d6000803e3d6000fd5b505050506040513d601f19601f82011682018060405250810190620009fe91906200412e565b905062000a148160800151826060015162002597565b62000a335760405162461bcd60e51b81526004016200098890620041f6565b62000a4381608001518462002597565b62000ab9576040805162461bcd60e51b81526020600482015260248101919091527f466f784d61726b65743a3a4f66666572206973207374696c6c2070656e64696e60448201527f67206c6f636b656420746f6b656e207472616e7366657220636f6f6c646f776e606482015260840162000988565b62000ac5828262002690565b505050565b60008281526097602052604090206001015462000ae7816200253a565b62000ac583836200276d565b6001600160a01b038116331462000b655760405162461bcd60e51b815260206004820152602f60248201527f416363657373436f6e74726f6c3a2063616e206f6e6c792072656e6f756e636560448201526e103937b632b9903337b91039b2b63360891b606482015260840162000988565b62000b71828262002793565b5050565b6001600160a01b037f000000000000000000000000000000000000000000000000000000000000000016300362000bc05760405162461bcd60e51b815260040162000988906200424c565b7f00000000000000000000000000000000000000000000000000000000000000006001600160a01b031662000c0b60008051602062005ed9833981519152546001600160a01b031690565b6001600160a01b03161462000c345760405162461bcd60e51b8152600401620009889062004298565b62000c3f81620027b9565b6040805160008082526020820190925262000c5d91839190620027c5565b50565b62000c6a6200293d565b62000c7462002985565b62000c7f8462000931565b62000c9e5760405162461bcd60e51b81526004016200098890620042e4565b62000ca98362002248565b62000cc85760405162461bcd60e51b8152600401620009889062004328565b6040516370a0823160e01b815233600482015284906000906001600160a01b038316906370a0823190602401602060405180830381865afa15801562000d12573d6000803e3d6000fd5b505050506040513d601f19601f8201168201806040525081019062000d3891906200436b565b90508381101562000d5d5760405162461bcd60e51b8152600401620009889062004385565b60408051610160810182526001815260006020820181905230828401523360608301526001600160a01b03898116608084015260a08301829052881660c083015260e0820187905261010082018690526101295461012083015261014082018190529151909190829062000dd19062003abd565b62000ddd9190620043ce565b604051809103906000f08015801562000dfa573d6000803e3d6000fd5b506040516323b872dd60e01b81523360048201526001600160a01b03808316602483015260448201899052919250908516906323b872dd906064016020604051808303816000875af115801562000e55573d6000803e3d6000fd5b505050506040513d601f19601f8201168201806040525081019062000e7b9190620043df565b5062000e888133620029e2565b876001600160a01b0316336001600160a01b03167f411c9c3beb049c99752c4b5afaf42e6f554fa4562d1c7b1667363c6b8849d8ce8360008b8a600060405162000ed795949392919062004403565b60405180910390a35050505062000eef600161019355565b50505050565b6060600062000f03620015ec565b9050805167ffffffffffffffff81111562000f225762000f2262003d7e565b60405190808252806020026020018201604052801562000f5f57816020015b62000f4b62003acb565b81526020019060019003908162000f415790505b50915060005b8151811015620010d25781818151811062000f845762000f8462004442565b60200260200101516001600160a01b0316630ab0210c6040518163ffffffff1660e01b815260040161016060405180830381865afa15801562000fcb573d6000803e3d6000fd5b505050506040513d601f19601f8201168201806040525081019062000ff191906200412e565b83828151811062001006576200100662004442565b6020908102919091010152600083828151811062001028576200102862004442565b602002602001015160000151600281111562001048576200104862003c23565b03620010bd576200109683828151811062001067576200106762004442565b60200260200101516080015183838151811062001088576200108862004442565b602002602001015162002a1e565b838281518110620010ab57620010ab62004442565b60200260200101516101400181815250505b80620010c9816200446e565b91505062000f65565b505090565b620010f160008051602062005f208339815191526200253a565b620010fb62002a98565b565b6001600160a01b037f0000000000000000000000000000000000000000000000000000000000000000163003620011485760405162461bcd60e51b815260040162000988906200424c565b7f00000000000000000000000000000000000000000000000000000000000000006001600160a01b03166200119360008051602062005ed9833981519152546001600160a01b031690565b6001600160a01b031614620011bc5760405162461bcd60e51b8152600401620009889062004298565b620011c782620027b9565b62000b7182826001620027c5565b6000306001600160a01b037f00000000000000000000000000000000000000000000000000000000000000001614620012775760405162461bcd60e51b815260206004820152603860248201527f555550535570677261646561626c653a206d757374206e6f742062652063616c60448201527f6c6564207468726f7567682064656c656761746563616c6c0000000000000000606482015260840162000988565b5060008051602062005ed983398151915290565b620012a560008051602062005f208339815191526200253a565b62000b71828262002aec565b620012bb6200293d565b620012c562002985565b620012d08162002c6f565b620012ef5760405162461bcd60e51b81526004016200098890620040d5565b60008190506000816001600160a01b0316630ab0210c6040518163ffffffff1660e01b815260040161016060405180830381865afa15801562001336573d6000803e3d6000fd5b505050506040513d601f19601f820116820180604052508101906200135c91906200412e565b905060008151600281111562001376576200137662003c23565b03620014a05760008160e0015111620013ed5760405162461bcd60e51b815260206004820152603260248201527f466f784d61726b65743a3a53656c6c657220686173206e6f742068796472617460448201527132b2103a3432902a37b5b2b71027b33332b960711b606482015260840162000988565b620013fd81608001513362002597565b620014715760405162461bcd60e51b815260206004820152603760248201527f4f66666572457363726f773a3a4275796572206973206f6e206c6f636b65642060448201527f746f6b656e207472616e7366657220636f6f6c646f776e000000000000000000606482015260840162000988565b6200148181608001518462002597565b620014a05760405162461bcd60e51b815260040162000988906200448a565b6000620014ac62002258565b90506000620014c083610100015162002c7f565b604051632870c06760e11b81529091506001600160a01b038516906350e180ce90620014f590339085908790600401620044f2565b600060405180830381600087803b1580156200151057600080fd5b505af115801562001525573d6000803e3d6000fd5b505050506200153985846060015162002ca1565b82608001516001600160a01b0316336001600160a01b031684606001516001600160a01b03167fc7e61cb9e63e44eb63acaa3b0cba7ff55e3948bdc92202f4da324e150f3999fb878760a001518860c001518960e001518a61010001518b60000151604051620015af969594939291906200451b565b60405180910390a45050505062000c5d600161019355565b620015e160008051602062005f208339815191526200253a565b62000c5d8162002cd5565b6060620015fb61016362002d3b565b905090565b606060006200160e620015ec565b9050805167ffffffffffffffff8111156200162d576200162d62003d7e565b6040519080825280602002602001820160405280156200166a57816020015b6200165662003acb565b8152602001906001900390816200164c5790505b5091506000805b82518110156200175557600083828151811062001692576200169262004442565b60200260200101516001600160a01b0316630ab0210c6040518163ffffffff1660e01b815260040161016060405180830381865afa158015620016d9573d6000803e3d6000fd5b505050506040513d601f19601f82011682018060405250810190620016ff91906200412e565b60e0810151909150156200173f578085848151811062001723576200172362004442565b602002602001018190525082806200173b906200446e565b9350505b50806200174c816200446e565b91505062001671565b50505090565b600054610100900460ff16158080156200177c5750600054600160ff909116105b80620017985750303b15801562001798575060005460ff166001145b620017fd5760405162461bcd60e51b815260206004820152602e60248201527f496e697469616c697a61626c653a20636f6e747261637420697320616c72656160448201526d191e481a5b9a5d1a585b1a5e995960921b606482015260840162000988565b6000805460ff19166001179055801562001821576000805461ff0019166101001790555b6200182d606462002d4a565b6200183762002d93565b6200184162002dc7565b801562000c5d576000805461ff0019169055604051600181527f7f26b83ff96e1f2b6a682f133852f6798a09c465da95921460cefb38474024989060200160405180910390a150565b620018946200293d565b6200189e62002985565b620018a98362000931565b620018c85760405162461bcd60e51b81526004016200098890620042e4565b620018d38262002248565b620018f25760405162461bcd60e51b8152600401620009889062004328565b600062001900843362002df1565b11620019605760405162461bcd60e51b815260206004820152602860248201527f4f66666572457363726f773a3a53656c6c657220686173206e6f206c6f636b656044820152676420746f6b656e7360c01b606482015260840162000988565b6200196c833362002597565b6200198b5760405162461bcd60e51b81526004016200098890620041f6565b604080516101608101825260008082526020820181905230828401523360608301526001600160a01b03868116608084015260a08301829052851660c083015260e08201819052610100820184905261012954610120830152610140820181905291519091908290620019fe9062003abd565b62001a0a9190620043ce565b604051809103906000f08015801562001a27573d6000803e3d6000fd5b50905062001a368133620029e2565b846001600160a01b0316336001600160a01b03167f411c9c3beb049c99752c4b5afaf42e6f554fa4562d1c7b1667363c6b8849d8ce8360008888600060405162001a8595949392919062004403565b60405180910390a3505062000ac5600161019355565b62001ab560008051602062005f208339815191526200253a565b62000b71828262002ca1565b62001adb60008051602062005f208339815191526200253a565b62001ae9610160826200255d565b506040516001600160a01b0382169033907f929a406ca0605cb110540d2c100ed3f943ea685087b5ffeeb0669c136bc1a27890600090a350565b62001b3d60008051602062005f208339815191526200253a565b620010fb62002e62565b62001b6160008051602062005f208339815191526200253a565b62000c5d8162002ea2565b600082815260c96020526040812062001b86908362002f68565b9392505050565b60009182526097602090815260408084206001600160a01b0393909316845291905290205460ff1690565b62001bc262002985565b62001bcd8162002c6f565b62001bec5760405162461bcd60e51b81526004016200098890620040d5565b60008190506000816001600160a01b0316630ab0210c6040518163ffffffff1660e01b815260040161016060405180830381865afa15801562001c33573d6000803e3d6000fd5b505050506040513d601f19601f8201168201806040525081019062001c5991906200412e565b60608101519091506001600160a01b0316331462001cba5760405162461bcd60e51b815260206004820152601760248201527f4f66666572457363726f773a3a4e6f742073656c6c6572000000000000000000604482015260640162000988565b60008151600281111562001cd25762001cd262003c23565b0362001d8f5762001cec8160800151826060015162002597565b62001d605760405162461bcd60e51b815260206004820152603860248201527f4f66666572457363726f773a3a53656c6c6572206973206f6e206c6f636b656460448201527f20746f6b656e207472616e7366657220636f6f6c646f776e0000000000000000606482015260840162000988565b62001d7081608001518462002597565b62001d8f5760405162461bcd60e51b815260040162000988906200448a565b62001d9b828262002690565b505062000c5d600161019355565b60608062001db961015e62002d3b565b915062001dc861016062002d3b565b90509091565b62001dd86200293d565b62001de262002985565b62001ded8562000931565b62001e0c5760405162461bcd60e51b81526004016200098890620042e4565b62001e178362002248565b62001e365760405162461bcd60e51b8152600401620009889062004328565b604051627eeac760e11b81523360048201526024810185905285906000906001600160a01b0383169062fdd58e90604401602060405180830381865afa15801562001e85573d6000803e3d6000fd5b505050506040513d601f19601f8201168201806040525081019062001eab91906200436b565b90508381101562001ed05760405162461bcd60e51b8152600401620009889062004385565b60408051610160810182526002815260006020820181905230828401523360608301526001600160a01b038a8116608084015260a083018a9052881660c083015260e0820187905261010082018690526101295461012083015261014082018190529151909190829062001f449062003abd565b62001f509190620043ce565b604051809103906000f08015801562001f6d573d6000803e3d6000fd5b50604051637921219560e11b81523360048201526001600160a01b038083166024830152604482018b90526064820189905260a06084830152600060a48301529192509085169063f242432a9060c401600060405180830381600087803b15801562001fd857600080fd5b505af115801562001fed573d6000803e3d6000fd5b5050505062001ffd8133620029e2565b886001600160a01b0316336001600160a01b03167f411c9c3beb049c99752c4b5afaf42e6f554fa4562d1c7b1667363c6b8849d8ce838b8b8a60006040516200204b95949392919062004403565b60405180910390a35050505062002063600161019355565b5050505050565b600081815260c960205260408120620008679062002f76565b60606000620020928362002f81565b9050805167ffffffffffffffff811115620020b157620020b162003d7e565b604051908082528060200260200182016040528015620020ee57816020015b620020da62003acb565b815260200190600190039081620020d05790505b50915060005b8151811015620021b65781818151811062002113576200211362004442565b60200260200101516001600160a01b0316630ab0210c6040518163ffffffff1660e01b815260040161016060405180830381865afa1580156200215a573d6000803e3d6000fd5b505050506040513d601f19601f820116820180604052508101906200218091906200412e565b83828151811062002195576200219562004442565b60200260200101819052508080620021ad906200446e565b915050620020f4565b5050919050565b620021d760008051602062005f208339815191526200253a565b620021e56101608262002546565b506040516001600160a01b0382169033907fce675ca2178fd3e82889d5856e95fe5c8369756f0513e85cb164a0f3bc10f0d390600090a350565b6000828152609760205260409020600101546200223c816200253a565b62000ac5838362002793565b6000620008676101608362002574565b6200227d60405180606001604052806060815260200160608152602001600081525090565b61012d5460006200229061012a62002fa8565b905060008167ffffffffffffffff811115620022b057620022b062003d7e565b604051908082528060200260200182016040528015620022da578160200160208202803683370190505b50905060008267ffffffffffffffff811115620022fb57620022fb62003d7e565b60405190808252806020026020018201604052801562002325578160200160208202803683370190505b50905060005b83811015620023a3576200234261012a8262002fb5565b84838151811062002357576200235762004442565b6020026020010184848151811062002373576200237362004442565b60209081029190910101919091526001600160a01b039091169052806200239a816200446e565b9150506200232b565b5060408051606081018252928352602083019190915281019290925250919050565b620023d36101638262002574565b620023f25760405162461bcd60e51b81526004016200098890620040d5565b60008190506000816001600160a01b0316630ab0210c6040518163ffffffff1660e01b815260040161016060405180830381865afa15801562002439573d6000803e3d6000fd5b505050506040513d601f19601f820116820180604052508101906200245f91906200412e565b60608101519091506001600160a01b03163314620024b85760405162461bcd60e51b81526020600482015260156024820152742337bc26b0b935b2ba1d1d2737ba1029b2b63632b960591b604482015260640162000988565b816001600160a01b0316634b1e58846040518163ffffffff1660e01b8152600401600060405180830381600087803b158015620024f457600080fd5b505af115801562002509573d6000803e3d6000fd5b50505050505050565b60006001600160e01b03198216635a05180f60e01b1480620008675750620008678262002fd5565b62000c5d81336200300c565b600062001b86836001600160a01b03841662003070565b600062001b86836001600160a01b03841662003174565b6001600160a01b0381166000908152600183016020526040812054151562001b86565b6040516325b5f69d60e21b81526001600160a01b03828116600483015260009184918391908316906396d7da7490602401602060405180830381865afa158015620025e6573d6000803e3d6000fd5b505050506040513d601f19601f820116820180604052508101906200260c91906200436b565b90506000826001600160a01b0316638c8b292b6040518163ffffffff1660e01b8152600401602060405180830381865afa1580156200264f573d6000803e3d6000fd5b505050506040513d601f19601f820116820180604052508101906200267591906200436b565b90504262002684828462004562565b11159695505050505050565b816001600160a01b031663ea8a1af06040518163ffffffff1660e01b8152600401600060405180830381600087803b158015620026cc57600080fd5b505af1158015620026e1573d6000803e3d6000fd5b50505050620026f582826060015162002ca1565b80608001516001600160a01b031681606001516001600160a01b03167fa596f978215cb64ea02e56d558cfce863833b081270204208fbb7d53f023ee9d848460a001518560c001518660e00151876101000151886000015160405162002761969594939291906200451b565b60405180910390a35050565b620027798282620031c6565b600082815260c96020526040902062000ac590826200255d565b6200279f828262003250565b600082815260c96020526040902062000ac5908262002546565b62000c5d60006200253a565b7f4910fdfa16fed3260ed0e7147f7cc6da11a60208b5b9406d12a635614ffd91435460ff1615620027fb5762000ac583620032ba565b826001600160a01b03166352d1902d6040518163ffffffff1660e01b8152600401602060405180830381865afa92505050801562002858575060408051601f3d908101601f1916820190925262002855918101906200436b565b60015b620028bd5760405162461bcd60e51b815260206004820152602e60248201527f45524331393637557067726164653a206e657720696d706c656d656e7461746960448201526d6f6e206973206e6f74205555505360901b606482015260840162000988565b60008051602062005ed983398151915281146200292f5760405162461bcd60e51b815260206004820152602960248201527f45524331393637557067726164653a20756e737570706f727465642070726f786044820152681a58589b195555525160ba1b606482015260840162000988565b5062000ac583838362003359565b60335460ff1615620010fb5760405162461bcd60e51b815260206004820152601060248201526f14185d5cd8589b194e881c185d5cd95960821b604482015260640162000988565b60026101935403620029da5760405162461bcd60e51b815260206004820152601f60248201527f5265656e7472616e637947756172643a207265656e7472616e742063616c6c00604482015260640162000988565b600261019355565b620029f0610163836200255d565b506001600160a01b03811660009081526101626020526040902062000ac590836200255d565b600161019355565b6040516325b5f69d60e21b81526001600160a01b03828116600483015260009184918216906396d7da7490602401602060405180830381865afa15801562002a6a573d6000803e3d6000fd5b505050506040513d601f19601f8201168201806040525081019062002a9091906200436b565b949350505050565b62002aa262003384565b6033805460ff191690557f5db9ee0a495bf2e6ff9c91a7834c1ba4fdd244a5e8aa4e537bd38aeae4b073aa335b6040516001600160a01b03909116815260200160405180910390a1565b6001600160a01b03821662002b6a5760405162461bcd60e51b815260206004820152603e60248201527f4665654469737472696275746f723a3a44657374696e6174696f6e204164647260448201527f6573732063616e6e6f7420626520746865207a65726f20616464726573730000606482015260840162000988565b6000811162002bd45760405162461bcd60e51b815260206004820152602f60248201527f4665654469737472696275746f723a3a5368617265206d75737420626520677260448201526e6561746572207468616e207a65726f60881b606482015260840162000988565b60008062002be561012a85620033cf565b9092509050811562002c455780831062002c255762002c05818462004578565b61012d600082825462002c19919062004562565b9091555062002c609050565b62002c31838262004578565b61012d600082825462002c19919062004578565b8261012d600082825462002c5a919062004562565b90915550505b6200206361012a8585620033e9565b6000620008676101638362002574565b6000612710610129548362002c9591906200458e565b620008679190620045b0565b62002caf6101638362002546565b506001600160a01b03811660009081526101626020526040902062000ac5908362002546565b6103e881111562002d355760405162461bcd60e51b8152602060048201526024808201527f4f66666572466163746f72793a3a46656520686967686572207468616e206d616044820152637846656560e01b606482015260840162000988565b61012955565b6060600062001b868362003401565b600054610100900460ff1662002d745760405162461bcd60e51b81526004016200098890620045d3565b62002d7e6200345f565b62002d8862003493565b62000c5d816200359f565b600054610100900460ff1662002dbd5760405162461bcd60e51b81526004016200098890620045d3565b620010fb620035c9565b600054610100900460ff16620010fb5760405162461bcd60e51b81526004016200098890620045d3565b604051635a46d3b560e01b81526001600160a01b03828116600483015260009190841690635a46d3b590602401602060405180830381865afa15801562002e3c573d6000803e3d6000fd5b505050506040513d601f19601f8201168201806040525081019062001b8691906200436b565b62002e6c6200293d565b6033805460ff191660011790557f62e78cea01bee320cd4e420270b5ea74000d11b0c9f74754ebdbfc544b05a25862002acf3390565b60008062002eb361012a84620033cf565b90925090508162002f3f5760405162461bcd60e51b815260206004820152604960248201527f4665654469737472696275746f723a3a44657374696e6174696f6e206164647260448201527f657373206973206e6f74206120636f6e6669677572656420666565207368617260648201526865206164647265737360b81b608482015260a40162000988565b8061012d600082825462002f54919062004578565b9091555062000eef905061012a84620035f3565b600062001b8683836200360a565b600062000867825490565b6001600160a01b038116600090815261016260205260409020606090620008679062002d3b565b6000620008678262003637565b600080808062002fc6868662003644565b909450925050505b9250929050565b60006001600160e01b03198216637965db0b60e01b14806200086757506301ffc9a760e01b6001600160e01b031983161462000867565b62003018828262001b8d565b62000b7157620030288162003671565b6200303583602062003684565b6040516020016200304892919062004644565b60408051601f198184030181529082905262461bcd60e51b82526200098891600401620046bd565b60008181526001830160205260408120548015620031695760006200309760018362004578565b8554909150600090620030ad9060019062004578565b905081811462003119576000866000018281548110620030d157620030d162004442565b9060005260206000200154905080876000018481548110620030f757620030f762004442565b6000918252602080832090910192909255918252600188019052604090208390555b85548690806200312d576200312d620046f2565b60019003818190600052602060002001600090559055856001016000868152602001908152602001600020600090556001935050505062000867565b600091505062000867565b6000818152600183016020526040812054620031bd5750815460018181018455600084815260208082209093018490558454848252828601909352604090209190915562000867565b50600062000867565b620031d2828262001b8d565b62000b715760008281526097602090815260408083206001600160a01b03851684529091529020805460ff191660011790556200320c3390565b6001600160a01b0316816001600160a01b0316837f2f8788117e7eff1d82e926ec794901d17c78024a50270940304540a733656f0d60405160405180910390a45050565b6200325c828262001b8d565b1562000b715760008281526097602090815260408083206001600160a01b0385168085529252808320805460ff1916905551339285917ff6391f5c32d9c69d2a47ea670b442974b53935d1edc7fd64eb21e047a839171b9190a45050565b6001600160a01b0381163b620033295760405162461bcd60e51b815260206004820152602d60248201527f455243313936373a206e657720696d706c656d656e746174696f6e206973206e60448201526c1bdd08184818dbdb9d1c9858dd609a1b606482015260840162000988565b60008051602062005ed983398151915280546001600160a01b0319166001600160a01b0392909216919091179055565b62003364836200383e565b600082511180620033725750805b1562000ac55762000eef838362003880565b60335460ff16620010fb5760405162461bcd60e51b815260206004820152601460248201527314185d5cd8589b194e881b9bdd081c185d5cd95960621b604482015260640162000988565b600080808062002fc6866001600160a01b0387166200397d565b600062002a90846001600160a01b03851684620039bc565b6060816000018054806020026020016040519081016040528092919081815260200182805480156200345357602002820191906000526020600020905b8154815260200190600101908083116200343e575b50505050509050919050565b600054610100900460ff16620034895760405162461bcd60e51b81526004016200098890620045d3565b620010fb620039db565b600054610100900460ff16620034bd5760405162461bcd60e51b81526004016200098890620045d3565b620034c762002dc7565b620034d46000336200276d565b620034ef60008051602062005f20833981519152336200276d565b6200351b7f364d3d7565c7a8300c96fd53e065d19b65848d7b23b3191adcd55621c744223c336200276d565b620035477f9f2df0fed2c77648de5860a4cc508cd0818c85b8b8a1ab4ceeef8d981c8956a6336200276d565b620035737ff18b77e1ef402111bacb54bd5e03494cbdba92fbd1bd3bbcc1ce77e69b42ea6c336200276d565b620010fb7f52ba824bfabc2bcfcdf7f0edbb486ebb05e1836c90e78047efeb949990f72e5f336200276d565b600054610100900460ff1662002d355760405162461bcd60e51b81526004016200098890620045d3565b600054610100900460ff1662002a165760405162461bcd60e51b81526004016200098890620045d3565b600062001b86836001600160a01b03841662003a11565b600082600001828154811062003624576200362462004442565b9060005260206000200154905092915050565b6000620008678262002f76565b6000808062003654858562002f68565b600081815260029690960160205260409095205494959350505050565b6060620008676001600160a01b03831660145b60606000620036958360026200458e565b620036a290600262004562565b67ffffffffffffffff811115620036bd57620036bd62003d7e565b6040519080825280601f01601f191660200182016040528015620036e8576020820181803683370190505b509050600360fc1b8160008151811062003706576200370662004442565b60200101906001600160f81b031916908160001a905350600f60fb1b8160018151811062003738576200373862004442565b60200101906001600160f81b031916908160001a90535060006200375e8460026200458e565b6200376b90600162004562565b90505b6001811115620037ed576f181899199a1a9b1b9c1cb0b131b232b360811b85600f1660108110620037a357620037a362004442565b1a60f81b828281518110620037bc57620037bc62004442565b60200101906001600160f81b031916908160001a90535060049490941c93620037e58162004708565b90506200376e565b50831562001b865760405162461bcd60e51b815260206004820181905260248201527f537472696e67733a20686578206c656e67746820696e73756666696369656e74604482015260640162000988565b6200384981620032ba565b6040516001600160a01b038216907fbc7cd75a20ee27fd9adebab32041f755214dbc6bffa90cc0225b39da2e5c2d3b90600090a250565b60606001600160a01b0383163b620038ea5760405162461bcd60e51b815260206004820152602660248201527f416464726573733a2064656c65676174652063616c6c20746f206e6f6e2d636f6044820152651b9d1c9858dd60d21b606482015260840162000988565b600080846001600160a01b03168460405162003907919062004722565b600060405180830381855af49150503d806000811462003944576040519150601f19603f3d011682016040523d82523d6000602084013e62003949565b606091505b509150915062003974828260405180606001604052806027815260200162005ef96027913962003a30565b95945050505050565b6000818152600283016020526040812054819080620039b057620039a2858562003a4d565b92506000915062002fce9050565b60019250905062002fce565b6000828152600284016020526040812082905562002a90848462003a5b565b600054610100900460ff1662003a055760405162461bcd60e51b81526004016200098890620045d3565b6033805460ff19169055565b6000818152600283016020526040812081905562001b86838362003a69565b6060831562003a4157508162001b86565b62001b86838362003a77565b600062001b86838362003aa4565b600062001b86838362003174565b600062001b86838362003070565b81511562003a885781518083602001fd5b8060405162461bcd60e51b8152600401620009889190620046bd565b6000818152600183016020526040812054151562001b86565b611798806200474183390190565b604080516101608101909152806000815260006020820181905260408201819052606082018190526080820181905260a0820181905260c0820181905260e08201819052610100820181905261012082018190526101409091015290565b60006020828403121562003b3c57600080fd5b81356001600160e01b03198116811462001b8657600080fd5b6001600160a01b038116811462000c5d57600080fd5b60006020828403121562003b7e57600080fd5b813562001b868162003b55565b60006020828403121562003b9e57600080fd5b5035919050565b6000806040838503121562003bb957600080fd5b82359150602083013562003bcd8162003b55565b809150509250929050565b6000806000806080858703121562003bef57600080fd5b843562003bfc8162003b55565b9350602085013562003c0e8162003b55565b93969395505050506040820135916060013590565b634e487b7160e01b600052602160045260246000fd5b6003811062003c5857634e487b7160e01b600052602160045260246000fd5b9052565b62003c6982825162003c39565b602081015162003c8460208401826001600160a01b03169052565b50604081015162003ca060408401826001600160a01b03169052565b50606081015162003cbc60608401826001600160a01b03169052565b50608081015162003cd860808401826001600160a01b03169052565b5060a081015160a083015260c081015162003cfe60c08401826001600160a01b03169052565b5060e081810151908301526101008082015190830152610120808201519083015261014090810151910152565b6020808252825182820181905260009190848201906040850190845b8181101562003d725762003d5d83855162003c5c565b92840192610160929092019160010162003d47565b50909695505050505050565b634e487b7160e01b600052604160045260246000fd5b604051610160810167ffffffffffffffff8111828210171562003dbb5762003dbb62003d7e565b60405290565b604051601f8201601f1916810167ffffffffffffffff8111828210171562003ded5762003ded62003d7e565b604052919050565b6000806040838503121562003e0957600080fd5b823562003e168162003b55565b915060208381013567ffffffffffffffff8082111562003e3557600080fd5b818601915086601f83011262003e4a57600080fd5b81358181111562003e5f5762003e5f62003d7e565b62003e73601f8201601f1916850162003dc1565b9150808252878482850101111562003e8a57600080fd5b80848401858401376000848284010152508093505050509250929050565b6000806040838503121562003ebc57600080fd5b823562003ec98162003b55565b946020939093013593505050565b600081518084526020808501945080840160005b8381101562003f125781516001600160a01b03168752958201959082019060010162003eeb565b509495945050505050565b60208152600062001b86602083018462003ed7565b60008060006060848603121562003f4857600080fd5b833562003f558162003b55565b9250602084013562003f678162003b55565b929592945050506040919091013590565b6000806040838503121562003f8c57600080fd5b823562003f998162003b55565b9150602083013562003bcd8162003b55565b6000806040838503121562003fbf57600080fd5b50508035926020909101359150565b60408152600062003fe3604083018562003ed7565b828103602084015262003974818562003ed7565b600080600080600060a086880312156200401057600080fd5b85356200401d8162003b55565b9450602086013593506040860135620040368162003b55565b94979396509394606081013594506080013592915050565b600081516060845262004065606085018262003ed7565b60208481015186830387830152805180845290820193509091600091908301905b80831015620040a8578451825293830193600192909201919083019062004086565b50604086015160408801528094505050505092915050565b60208152600062001b8660208301846200404e565b6020808252601e908201527f466f784d61726b65743a3a496e76616c696420546f6b656e204f666665720000604082015260600190565b8051600381106200411c57600080fd5b919050565b80516200411c8162003b55565b600061016082840312156200414257600080fd5b6200414c62003d94565b62004157836200410c565b8152620041676020840162004121565b60208201526200417a6040840162004121565b60408201526200418d6060840162004121565b6060820152620041a06080840162004121565b608082015260a083015160a0820152620041bd60c0840162004121565b60c082015260e0838101519082015261010080840151908201526101208084015190820152610140928301519281019290925250919050565b60208082526036908201527f466f784d61726b65743a3a53656c6c6572206973206f6e206c6f636b6564207460408201527537b5b2b7103a3930b739b332b91031b7b7b63237bbb760511b606082015260800190565b6020808252602c908201527f46756e6374696f6e206d7573742062652063616c6c6564207468726f7567682060408201526b19195b1959d85d1958d85b1b60a21b606082015260800190565b6020808252602c908201527f46756e6374696f6e206d7573742062652063616c6c6564207468726f7567682060408201526b6163746976652070726f787960a01b606082015260800190565b60208082526024908201527f466f784d61726b65743a3a4f6666657220746f6b656e206e6f7420737570706f6040820152631c9d195960e21b606082015260800190565b60208082526023908201527f466f784d61726b65743a3a53616c6520746f6b656e206e6f7420737570706f726040820152621d195960ea1b606082015260800190565b6000602082840312156200437e57600080fd5b5051919050565b60208082526029908201527f466f784d61726b65743a3a496e73756666696369656e74204f6666657220546f6040820152686b656e2066756e647360b81b606082015260800190565b610160810162000867828462003c5c565b600060208284031215620043f257600080fd5b8151801515811462001b8657600080fd5b6001600160a01b03868116825260208201869052841660408201526060810183905260a0810162004438608083018462003c39565b9695505050505050565b634e487b7160e01b600052603260045260246000fd5b634e487b7160e01b600052601160045260246000fd5b60006001820162004483576200448362004458565b5060010190565b60208082526042908201527f4f66666572457363726f773a3a4f66666572206973207374696c6c2070656e6460408201527f696e67206c6f636b656420746f6b656e207472616e7366657220636f6f6c646f6060820152613bb760f11b608082015260a00190565b60018060a01b03841681528260208201526060604082015260006200397460608301846200404e565b6001600160a01b0387811682526020820187905285166040820152606081018490526080810183905260c081016200455760a083018462003c39565b979650505050505050565b8082018082111562000867576200086762004458565b8181038181111562000867576200086762004458565b6000816000190483118215151615620045ab57620045ab62004458565b500290565b600082620045ce57634e487b7160e01b600052601260045260246000fd5b500490565b6020808252602b908201527f496e697469616c697a61626c653a20636f6e7472616374206973206e6f74206960408201526a6e697469616c697a696e6760a81b606082015260800190565b60005b838110156200463b57818101518382015260200162004621565b50506000910152565b7f416363657373436f6e74726f6c3a206163636f756e74200000000000000000008152600083516200467e8160178501602088016200461e565b7001034b99036b4b9b9b4b733903937b6329607d1b6017918401918201528351620046b18160288401602088016200461e565b01602801949350505050565b6020815260008251806020840152620046de8160408501602087016200461e565b601f01601f19169190910160400192915050565b634e487b7160e01b600052603160045260246000fd5b6000816200471a576200471a62004458565b506000190190565b60008251620047368184602087016200461e565b919091019291505056fe6101806040523480156200001257600080fd5b506040516200179838038062001798833981016040819052620000359162000144565b60408101516001600160a01b0390811660a09081526060830151821660c09081526080840151831660e05290830151610100908152908301519091166101205281015161014052805160028111156200009257620000926200020c565b6080816002811115620000a957620000a96200020c565b9052506101208101516101605260800151600180546001600160a01b0319166001600160a01b0390921691909117905562000222565b60405161016081016001600160401b03811182821017156200011157634e487b7160e01b600052604160045260246000fd5b60405290565b8051600381106200012757600080fd5b919050565b80516001600160a01b03811681146200012757600080fd5b600061016082840312156200015857600080fd5b62000162620000df565b6200016d8362000117565b81526200017d602084016200012c565b602082015262000190604084016200012c565b6040820152620001a3606084016200012c565b6060820152620001b6608084016200012c565b608082015260a083015160a0820152620001d360c084016200012c565b60c082015260e0838101519082015261010080840151908201526101208084015190820152610140928301519281019290925250919050565b634e487b7160e01b600052602160045260246000fd5b60805160a05160c05160e05161010051610120516101405161016051611453620003456000396000818161028701526104b30152600081816101f30152818161048d015261076c0152600081816102ae01528181610456015281816107eb0152610ebe01526000818161026001526104300152600081816102280152610408015260008181610127015281816103e00152818161069b015281816107bc0152818161092101528181610cf801528181610daf0152610e490152600081816101cc015281816103b8015281816104ec015281816107270152610c5801526000818161017b01528181610376015281816105360152818161085d01528181610a0901528181610b3701528181610be201528181610c990152610d6701526114536000f3fe608060405234801561001057600080fd5b50600436106100f55760003560e01c80638aae995a11610097578063dc17923e11610066578063dc17923e1461025b578063ddca3f4314610282578063e985e367146102a9578063ea8a1af0146102d057600080fd5b80638aae995a146101ee57806397e1963614610223578063b8974d551461024a578063ce0617ec1461025257600080fd5b806330fa738c116100d357806330fa738c146101765780634b1e5884146101aa57806350e180ce146101b457806380f55605146101c757600080fd5b806301ffc9a7146100fa57806308551a53146101225780630ab0210c14610161575b600080fd5b61010d610108366004610fa0565b6102d8565b60405190151581526020015b60405180910390f35b6101497f000000000000000000000000000000000000000000000000000000000000000081565b6040516001600160a01b039091168152602001610119565b61016961030f565b6040516101199190611009565b61019d7f000000000000000000000000000000000000000000000000000000000000000081565b60405161011991906110e0565b6101b26104e1565b005b6101b26101c2366004611209565b61071c565b6101497f000000000000000000000000000000000000000000000000000000000000000081565b6102157f000000000000000000000000000000000000000000000000000000000000000081565b604051908152602001610119565b6101497f000000000000000000000000000000000000000000000000000000000000000081565b610215610b32565b61021560005481565b6102157f000000000000000000000000000000000000000000000000000000000000000081565b6102157f000000000000000000000000000000000000000000000000000000000000000081565b6101497f000000000000000000000000000000000000000000000000000000000000000081565b6101b2610c4d565b60006001600160e01b031982166367ea7e9560e01b148061030957506301ffc9a760e01b6001600160e01b03198316145b92915050565b6040805161016081018252600080825260208201819052918101829052606081018290526080810182905260a0810182905260c0810182905260e08101829052610100810182905261012081018290526101408101919091526040518061016001604052807f000000000000000000000000000000000000000000000000000000000000000060028111156103a6576103a6610fd1565b81523060208201526001600160a01b037f0000000000000000000000000000000000000000000000000000000000000000811660408301527f0000000000000000000000000000000000000000000000000000000000000000811660608301527f0000000000000000000000000000000000000000000000000000000000000000811660808301527f000000000000000000000000000000000000000000000000000000000000000060a08301527f00000000000000000000000000000000000000000000000000000000000000001660c082015260e001610486610b32565b81526020017f000000000000000000000000000000000000000000000000000000000000000081526020017f000000000000000000000000000000000000000000000000000000000000000081526020016000815250905090565b336001600160a01b037f000000000000000000000000000000000000000000000000000000000000000016146105325760405162461bcd60e51b815260040161052990611319565b60405180910390fd5b60007f0000000000000000000000000000000000000000000000000000000000000000600281111561056657610566610fd1565b146105b35760405162461bcd60e51b815260206004820152601f60248201527f4f66666572457363726f773a3a4e6f742061206c6f636b6564206f66666572006044820152606401610529565b6001546040516370a0823160e01b81523060048201526000916001600160a01b0316906370a0823190602401602060405180830381865afa1580156105fc573d6000803e3d6000fd5b505050506040513d601f19601f820116820180604052508101906106209190611349565b9050600081116106815760405162461bcd60e51b815260206004820152602660248201527f4f66666572457363726f773a3a4e6f20756e6c6f636b656420746f6b656e2062604482015265616c616e636560d01b6064820152608401610529565b60015460405163a9059cbb60e01b81526001600160a01b037f000000000000000000000000000000000000000000000000000000000000000081166004830152602482018490529091169063a9059cbb906044016020604051808303816000875af11580156106f4573d6000803e3d6000fd5b505050506040513d601f19601f820116820180604052508101906107189190611362565b5050565b336001600160a01b037f000000000000000000000000000000000000000000000000000000000000000016146107645760405162461bcd60e51b815260040161052990611319565b6000610790837f000000000000000000000000000000000000000000000000000000000000000061139a565b905061079d848484610e73565b6040516323b872dd60e01b81526001600160a01b0385811660048301527f000000000000000000000000000000000000000000000000000000000000000081166024830152604482018390527f000000000000000000000000000000000000000000000000000000000000000016906323b872dd906064016020604051808303816000875af1158015610834573d6000803e3d6000fd5b505050506040513d601f19601f820116820180604052508101906108589190611362565b5060007f0000000000000000000000000000000000000000000000000000000000000000600281111561088d5761088d610fd1565b03610a05576001546040516370a0823160e01b81523060048201526000916001600160a01b0316906370a0823190602401602060405180830381865afa1580156108db573d6000803e3d6000fd5b505050506040513d601f19601f820116820180604052508101906108ff9190611349565b905080156109a05760015460405163a9059cbb60e01b81526001600160a01b037f000000000000000000000000000000000000000000000000000000000000000081166004830152602482018490529091169063a9059cbb906044016020604051808303816000875af115801561097a573d6000803e3d6000fd5b505050506040513d601f19601f8201168201806040525081019061099e9190611362565b505b60015460405163a3a7e7f360e01b81526001600160a01b0387811660048301529091169063a3a7e7f390602401600060405180830381600087803b1580156109e757600080fd5b505af11580156109fb573d6000803e3d6000fd5b5050505050610b26565b60017f00000000000000000000000000000000000000000000000000000000000000006002811115610a3957610a39610fd1565b03610acd576001546001600160a01b031663a9059cbb85610a58610b32565b6040516001600160e01b031960e085901b1681526001600160a01b03909216600483015260248201526044016020604051808303816000875af1158015610aa3573d6000803e3d6000fd5b505050506040513d601f19601f82011682018060405250810190610ac79190611362565b50610b26565b60405162461bcd60e51b815260206004820152602860248201527f4f66666572457363726f773a3a45524331313535206e6f7420696d706c656d656044820152671b9d1959081e595d60c21b6064820152608401610529565b836001600160a01b0316ff5b6000807f00000000000000000000000000000000000000000000000000000000000000006002811115610b6757610b67610fd1565b03610bde57600154604051635a46d3b560e01b81523060048201526001600160a01b0390911690635a46d3b5906024015b602060405180830381865afa158015610bb5573d6000803e3d6000fd5b505050506040513d601f19601f82011682018060405250810190610bd99190611349565b905090565b60017f00000000000000000000000000000000000000000000000000000000000000006002811115610c1257610c12610fd1565b03610c47576001546040516370a0823160e01b81523060048201526001600160a01b03909116906370a0823190602401610b98565b50600090565b336001600160a01b037f00000000000000000000000000000000000000000000000000000000000000001614610c955760405162461bcd60e51b815260040161052990611319565b60007f00000000000000000000000000000000000000000000000000000000000000006002811115610cc957610cc9610fd1565b03610d63576000610cd8610b32565b1115610d5e5760015460405163a3a7e7f360e01b81526001600160a01b037f0000000000000000000000000000000000000000000000000000000000000000811660048301529091169063a3a7e7f390602401600060405180830381600087803b158015610d4557600080fd5b505af1158015610d59573d6000803e3d6000fd5b505050505b610e47565b60017f00000000000000000000000000000000000000000000000000000000000000006002811115610d9757610d97610fd1565b03610acd576001546001600160a01b031663a9059cbb7f0000000000000000000000000000000000000000000000000000000000000000610dd6610b32565b6040516001600160e01b031960e085901b1681526001600160a01b03909216600483015260248201526044016020604051808303816000875af1158015610e21573d6000803e3d6000fd5b505050506040513d601f19601f82011682018060405250810190610e459190611362565b505b7f00000000000000000000000000000000000000000000000000000000000000006001600160a01b0316ff5b60005b815151811015610f9a576000826040015183602001518381518110610e9d57610e9d6113ad565b602002602001015185610eb091906113c3565b610eba91906113e2565b90507f00000000000000000000000000000000000000000000000000000000000000006001600160a01b03166323b872dd8685600001518581518110610f0257610f026113ad565b60209081029190910101516040516001600160e01b031960e085901b1681526001600160a01b03928316600482015291166024820152604481018490526064016020604051808303816000875af1158015610f61573d6000803e3d6000fd5b505050506040513d601f19601f82011682018060405250810190610f859190611362565b50508080610f9290611404565b915050610e76565b50505050565b600060208284031215610fb257600080fd5b81356001600160e01b031981168114610fca57600080fd5b9392505050565b634e487b7160e01b600052602160045260246000fd5b6003811061100557634e487b7160e01b600052602160045260246000fd5b9052565b60006101608201905061101d828451610fe7565b602083015161103760208401826001600160a01b03169052565b50604083015161105260408401826001600160a01b03169052565b50606083015161106d60608401826001600160a01b03169052565b50608083015161108860808401826001600160a01b03169052565b5060a083015160a083015260c08301516110ad60c08401826001600160a01b03169052565b5060e083810151908301526101008084015190830152610120808401519083015261014092830151929091019190915290565b602081016103098284610fe7565b80356001600160a01b038116811461110557600080fd5b919050565b634e487b7160e01b600052604160045260246000fd5b6040516060810167ffffffffffffffff811182821017156111435761114361110a565b60405290565b604051601f8201601f1916810167ffffffffffffffff811182821017156111725761117261110a565b604052919050565b600067ffffffffffffffff8211156111945761119461110a565b5060051b60200190565b600082601f8301126111af57600080fd5b813560206111c46111bf8361117a565b611149565b82815260059290921b840181019181810190868411156111e357600080fd5b8286015b848110156111fe57803583529183019183016111e7565b509695505050505050565b60008060006060848603121561121e57600080fd5b611227846110ee565b92506020808501359250604085013567ffffffffffffffff8082111561124c57600080fd5b908601906060828903121561126057600080fd5b611268611120565b82358281111561127757600080fd5b8301601f81018a1361128857600080fd5b80356112966111bf8261117a565b81815260059190911b8201860190868101908c8311156112b557600080fd5b928701925b828410156112da576112cb846110ee565b825292870192908701906112ba565b845250505082840135828111156112f057600080fd5b6112fc8a82860161119e565b858301525060408301356040820152809450505050509250925092565b602080825260169082015275151bdad95b93d999995c8e8e939bdd081b585c9ad95d60521b604082015260600190565b60006020828403121561135b57600080fd5b5051919050565b60006020828403121561137457600080fd5b81518015158114610fca57600080fd5b634e487b7160e01b600052601160045260246000fd5b8181038181111561030957610309611384565b634e487b7160e01b600052603260045260246000fd5b60008160001904831182151516156113dd576113dd611384565b500290565b6000826113ff57634e487b7160e01b600052601260045260246000fd5b500490565b60006001820161141657611416611384565b506001019056fea26469706673582212207fa96f644d268bb95831b00d2222282d74c36eb0007383caa65684b116e2305c64736f6c63430008100033360894a13ba1a3210667c828492db98dca3e2076cc3735a920a3ca505d382bbc416464726573733a206c6f772d6c6576656c2064656c65676174652063616c6c206661696c6564a49807205ce4d355092ef5a8a18f56e8913cf4a201fbe287825b095693c21775a2646970667358221220606676fbd4aa3597848dd7cfb6263a373870d1b46acbf77faed7d7003773956664736f6c63430008100033",
  "linkReferences": {},
  "deployedLinkReferences": {}
}