{
  "_format": "hh-sol-artifact-1",
  "contractName": "FoxMarketCore",
  "sourceName": "contracts/escrow/FoxMarketCore.sol",
  "abi": [
    {
      "anonymous": false,
      "inputs": [
        {
          "indexed": false,
          "internalType": "address",
          "name": "newAddress",
          "type": "address"
        },
        {
          "indexed": false,
          "internalType": "address",
          "name": "caller",
          "type": "address"
        }
      ],
      "name": "DevAddressUpdate",
      "type": "event"
    },
    {
      "anonymous": false,
      "inputs": [
        {
          "indexed": false,
          "internalType": "address",
          "name": "newAddress",
          "type": "address"
        },
        {
          "indexed": false,
          "internalType": "address",
          "name": "caller",
          "type": "address"
        }
      ],
      "name": "EscrowFeeAddressUpdate",
      "type": "event"
    },
    {
      "anonymous": false,
      "inputs": [
        {
          "indexed": true,
          "internalType": "address",
          "name": "from",
          "type": "address"
        },
        {
          "indexed": true,
          "internalType": "address",
          "name": "to",
          "type": "address"
        },
        {
          "indexed": true,
          "internalType": "address",
          "name": "token",
          "type": "address"
        },
        {
          "indexed": false,
          "internalType": "uint256",
          "name": "amount",
          "type": "uint256"
        }
      ],
      "name": "FeeDistributed",
      "type": "event"
    },
    {
      "anonymous": false,
      "inputs": [
        {
          "indexed": false,
          "internalType": "uint8",
          "name": "version",
          "type": "uint8"
        }
      ],
      "name": "Initialized",
      "type": "event"
    },
    {
      "anonymous": false,
      "inputs": [
        {
          "indexed": false,
          "internalType": "address",
          "name": "tokenOffer",
          "type": "address"
        },
        {
          "indexed": true,
          "internalType": "address",
          "name": "seller",
          "type": "address"
        },
        {
          "indexed": true,
          "internalType": "address",
          "name": "offerToken",
          "type": "address"
        },
        {
          "indexed": false,
          "internalType": "uint256",
          "name": "offerTokenId",
          "type": "uint256"
        },
        {
          "indexed": false,
          "internalType": "address",
          "name": "saleToken",
          "type": "address"
        },
        {
          "indexed": false,
          "internalType": "uint256",
          "name": "offerAmount",
          "type": "uint256"
        },
        {
          "indexed": false,
          "internalType": "uint256",
          "name": "saleAmount",
          "type": "uint256"
        },
        {
          "indexed": false,
          "internalType": "enum IFoxMarketCommon.TokenType",
          "name": "offerTokenType",
          "type": "uint8"
        }
      ],
      "name": "OfferCancelled",
      "type": "event"
    },
    {
      "anonymous": false,
      "inputs": [
        {
          "indexed": false,
          "internalType": "address",
          "name": "tokenOffer",
          "type": "address"
        },
        {
          "indexed": true,
          "internalType": "address",
          "name": "seller",
          "type": "address"
        },
        {
          "indexed": true,
          "internalType": "address",
          "name": "offerToken",
          "type": "address"
        },
        {
          "indexed": false,
          "internalType": "uint256",
          "name": "offerTokenId",
          "type": "uint256"
        },
        {
          "indexed": false,
          "internalType": "address",
          "name": "saleToken",
          "type": "address"
        },
        {
          "indexed": false,
          "internalType": "uint256",
          "name": "saleAmount",
          "type": "uint256"
        },
        {
          "indexed": false,
          "internalType": "enum IFoxMarketCommon.TokenType",
          "name": "offerTokenType",
          "type": "uint8"
        }
      ],
      "name": "OfferCreated",
      "type": "event"
    },
    {
      "anonymous": false,
      "inputs": [
        {
          "indexed": false,
          "internalType": "address",
          "name": "tokenOffer",
          "type": "address"
        },
        {
          "indexed": true,
          "internalType": "address",
          "name": "seller",
          "type": "address"
        },
        {
          "indexed": true,
          "internalType": "address",
          "name": "buyer",
          "type": "address"
        },
        {
          "indexed": true,
          "internalType": "address",
          "name": "offerToken",
          "type": "address"
        },
        {
          "indexed": false,
          "internalType": "uint256",
          "name": "offerTokenId",
          "type": "uint256"
        },
        {
          "indexed": false,
          "internalType": "address",
          "name": "saleToken",
          "type": "address"
        },
        {
          "indexed": false,
          "internalType": "uint256",
          "name": "offerAmount",
          "type": "uint256"
        },
        {
          "indexed": false,
          "internalType": "uint256",
          "name": "saleAmount",
          "type": "uint256"
        },
        {
          "indexed": false,
          "internalType": "enum IFoxMarketCommon.TokenType",
          "name": "offerTokenType",
          "type": "uint8"
        }
      ],
      "name": "OfferFilled",
      "type": "event"
    },
    {
      "anonymous": false,
      "inputs": [
        {
          "indexed": true,
          "internalType": "address",
          "name": "by",
          "type": "address"
        },
        {
          "indexed": true,
          "internalType": "address",
          "name": "token",
          "type": "address"
        }
      ],
      "name": "OfferTokenSupportAdded",
      "type": "event"
    },
    {
      "anonymous": false,
      "inputs": [
        {
          "indexed": true,
          "internalType": "address",
          "name": "by",
          "type": "address"
        },
        {
          "indexed": true,
          "internalType": "address",
          "name": "token",
          "type": "address"
        }
      ],
      "name": "OfferTokenSupportRemoved",
      "type": "event"
    },
    {
      "anonymous": false,
      "inputs": [
        {
          "indexed": false,
          "internalType": "address",
          "name": "account",
          "type": "address"
        }
      ],
      "name": "Paused",
      "type": "event"
    },
    {
      "anonymous": false,
      "inputs": [
        {
          "indexed": true,
          "internalType": "bytes32",
          "name": "role",
          "type": "bytes32"
        },
        {
          "indexed": true,
          "internalType": "bytes32",
          "name": "previousAdminRole",
          "type": "bytes32"
        },
        {
          "indexed": true,
          "internalType": "bytes32",
          "name": "newAdminRole",
          "type": "bytes32"
        }
      ],
      "name": "RoleAdminChanged",
      "type": "event"
    },
    {
      "anonymous": false,
      "inputs": [
        {
          "indexed": true,
          "internalType": "bytes32",
          "name": "role",
          "type": "bytes32"
        },
        {
          "indexed": true,
          "internalType": "address",
          "name": "account",
          "type": "address"
        },
        {
          "indexed": true,
          "internalType": "address",
          "name": "sender",
          "type": "address"
        }
      ],
      "name": "RoleGranted",
      "type": "event"
    },
    {
      "anonymous": false,
      "inputs": [
        {
          "indexed": true,
          "internalType": "bytes32",
          "name": "role",
          "type": "bytes32"
        },
        {
          "indexed": true,
          "internalType": "address",
          "name": "account",
          "type": "address"
        },
        {
          "indexed": true,
          "internalType": "address",
          "name": "sender",
          "type": "address"
        }
      ],
      "name": "RoleRevoked",
      "type": "event"
    },
    {
      "anonymous": false,
      "inputs": [
        {
          "indexed": true,
          "internalType": "address",
          "name": "by",
          "type": "address"
        },
        {
          "indexed": true,
          "internalType": "address",
          "name": "token",
          "type": "address"
        }
      ],
      "name": "SaleTokenSupportAdded",
      "type": "event"
    },
    {
      "anonymous": false,
      "inputs": [
        {
          "indexed": true,
          "internalType": "address",
          "name": "by",
          "type": "address"
        },
        {
          "indexed": true,
          "internalType": "address",
          "name": "token",
          "type": "address"
        }
      ],
      "name": "SaleTokenSupportRemoved",
      "type": "event"
    },
    {
      "anonymous": false,
      "inputs": [
        {
          "indexed": false,
          "internalType": "address",
          "name": "account",
          "type": "address"
        }
      ],
      "name": "Unpaused",
      "type": "event"
    },
    {
      "inputs": [],
      "name": "DEFAULT_ADMIN_ROLE",
      "outputs": [
        {
          "internalType": "bytes32",
          "name": "",
          "type": "bytes32"
        }
      ],
      "stateMutability": "view",
      "type": "function"
    },
    {
      "inputs": [
        {
          "internalType": "address",
          "name": "token",
          "type": "address"
        }
      ],
      "name": "addSupportedOfferToken",
      "outputs": [],
      "stateMutability": "nonpayable",
      "type": "function"
    },
    {
      "inputs": [
        {
          "internalType": "address",
          "name": "token",
          "type": "address"
        }
      ],
      "name": "addSupportedSaleToken",
      "outputs": [],
      "stateMutability": "nonpayable",
      "type": "function"
    },
    {
      "inputs": [
        {
          "internalType": "address",
          "name": "offerEscrow",
          "type": "address"
        }
      ],
      "name": "adminCancel",
      "outputs": [],
      "stateMutability": "nonpayable",
      "type": "function"
    },
    {
      "inputs": [
        {
          "internalType": "address",
          "name": "escrow",
          "type": "address"
        },
        {
          "internalType": "address",
          "name": "seller",
          "type": "address"
        }
      ],
      "name": "cleanup",
      "outputs": [],
      "stateMutability": "nonpayable",
      "type": "function"
    },
    {
      "inputs": [],
      "name": "fee",
      "outputs": [
        {
          "internalType": "uint256",
          "name": "",
          "type": "uint256"
        }
      ],
      "stateMutability": "view",
      "type": "function"
    },
    {
      "inputs": [],
      "name": "getFeeShares",
      "outputs": [
        {
          "components": [
            {
              "internalType": "address[]",
              "name": "destinations",
              "type": "address[]"
            },
            {
              "internalType": "uint256[]",
              "name": "shares",
              "type": "uint256[]"
            },
            {
              "internalType": "uint256",
              "name": "total",
              "type": "uint256"
            }
          ],
          "internalType": "struct IFoxMarketCommon.FeeDistribution",
          "name": "feeDistribution",
          "type": "tuple"
        }
      ],
      "stateMutability": "view",
      "type": "function"
    },
    {
      "inputs": [
        {
          "internalType": "bytes32",
          "name": "role",
          "type": "bytes32"
        }
      ],
      "name": "getRoleAdmin",
      "outputs": [
        {
          "internalType": "bytes32",
          "name": "",
          "type": "bytes32"
        }
      ],
      "stateMutability": "view",
      "type": "function"
    },
    {
      "inputs": [
        {
          "internalType": "bytes32",
          "name": "role",
          "type": "bytes32"
        },
        {
          "internalType": "uint256",
          "name": "index",
          "type": "uint256"
        }
      ],
      "name": "getRoleMember",
      "outputs": [
        {
          "internalType": "address",
          "name": "",
          "type": "address"
        }
      ],
      "stateMutability": "view",
      "type": "function"
    },
    {
      "inputs": [
        {
          "internalType": "bytes32",
          "name": "role",
          "type": "bytes32"
        }
      ],
      "name": "getRoleMemberCount",
      "outputs": [
        {
          "internalType": "uint256",
          "name": "",
          "type": "uint256"
        }
      ],
      "stateMutability": "view",
      "type": "function"
    },
    {
      "inputs": [
        {
          "internalType": "bytes32",
          "name": "role",
          "type": "bytes32"
        },
        {
          "internalType": "address",
          "name": "account",
          "type": "address"
        }
      ],
      "name": "grantRole",
      "outputs": [],
      "stateMutability": "nonpayable",
      "type": "function"
    },
    {
      "inputs": [
        {
          "internalType": "bytes32",
          "name": "role",
          "type": "bytes32"
        },
        {
          "internalType": "address",
          "name": "account",
          "type": "address"
        }
      ],
      "name": "hasRole",
      "outputs": [
        {
          "internalType": "bool",
          "name": "",
          "type": "bool"
        }
      ],
      "stateMutability": "view",
      "type": "function"
    },
    {
      "inputs": [
        {
          "internalType": "address",
          "name": "token",
          "type": "address"
        }
      ],
      "name": "isSupportedOfferToken",
      "outputs": [
        {
          "internalType": "bool",
          "name": "",
          "type": "bool"
        }
      ],
      "stateMutability": "view",
      "type": "function"
    },
    {
      "inputs": [
        {
          "internalType": "address",
          "name": "token",
          "type": "address"
        }
      ],
      "name": "isSupportedSaleToken",
      "outputs": [
        {
          "internalType": "bool",
          "name": "",
          "type": "bool"
        }
      ],
      "stateMutability": "view",
      "type": "function"
    },
    {
      "inputs": [],
      "name": "maxFee",
      "outputs": [
        {
          "internalType": "uint256",
          "name": "",
          "type": "uint256"
        }
      ],
      "stateMutability": "view",
      "type": "function"
    },
    {
      "inputs": [],
      "name": "offerEscrows",
      "outputs": [
        {
          "internalType": "address[]",
          "name": "",
          "type": "address[]"
        }
      ],
      "stateMutability": "view",
      "type": "function"
    },
    {
      "inputs": [],
      "name": "pause",
      "outputs": [],
      "stateMutability": "nonpayable",
      "type": "function"
    },
    {
      "inputs": [],
      "name": "paused",
      "outputs": [
        {
          "internalType": "bool",
          "name": "",
          "type": "bool"
        }
      ],
      "stateMutability": "view",
      "type": "function"
    },
    {
      "inputs": [
        {
          "internalType": "address",
          "name": "destination",
          "type": "address"
        }
      ],
      "name": "removeFeeShare",
      "outputs": [],
      "stateMutability": "nonpayable",
      "type": "function"
    },
    {
      "inputs": [
        {
          "internalType": "address",
          "name": "token",
          "type": "address"
        }
      ],
      "name": "removeSupportedOfferToken",
      "outputs": [],
      "stateMutability": "nonpayable",
      "type": "function"
    },
    {
      "inputs": [
        {
          "internalType": "address",
          "name": "token",
          "type": "address"
        }
      ],
      "name": "removeSupportedSaleToken",
      "outputs": [],
      "stateMutability": "nonpayable",
      "type": "function"
    },
    {
      "inputs": [
        {
          "internalType": "bytes32",
          "name": "role",
          "type": "bytes32"
        },
        {
          "internalType": "address",
          "name": "account",
          "type": "address"
        }
      ],
      "name": "renounceRole",
      "outputs": [],
      "stateMutability": "nonpayable",
      "type": "function"
    },
    {
      "inputs": [
        {
          "internalType": "address",
          "name": "escrow",
          "type": "address"
        }
      ],
      "name": "returnUnlocked",
      "outputs": [],
      "stateMutability": "nonpayable",
      "type": "function"
    },
    {
      "inputs": [
        {
          "internalType": "bytes32",
          "name": "role",
          "type": "bytes32"
        },
        {
          "internalType": "address",
          "name": "account",
          "type": "address"
        }
      ],
      "name": "revokeRole",
      "outputs": [],
      "stateMutability": "nonpayable",
      "type": "function"
    },
    {
      "inputs": [
        {
          "internalType": "uint256",
          "name": "_fee",
          "type": "uint256"
        }
      ],
      "name": "setFee",
      "outputs": [],
      "stateMutability": "nonpayable",
      "type": "function"
    },
    {
      "inputs": [
        {
          "internalType": "address",
          "name": "destination",
          "type": "address"
        },
        {
          "internalType": "uint256",
          "name": "share",
          "type": "uint256"
        }
      ],
      "name": "setFeeShare",
      "outputs": [],
      "stateMutability": "nonpayable",
      "type": "function"
    },
    {
      "inputs": [],
      "name": "supportedTokens",
      "outputs": [
        {
          "internalType": "address[]",
          "name": "offer",
          "type": "address[]"
        },
        {
          "internalType": "address[]",
          "name": "sale",
          "type": "address[]"
        }
      ],
      "stateMutability": "view",
      "type": "function"
    },
    {
      "inputs": [
        {
          "internalType": "bytes4",
          "name": "interfaceId",
          "type": "bytes4"
        }
      ],
      "name": "supportsInterface",
      "outputs": [
        {
          "internalType": "bool",
          "name": "",
          "type": "bool"
        }
      ],
      "stateMutability": "view",
      "type": "function"
    },
    {
      "inputs": [],
      "name": "unpause",
      "outputs": [],
      "stateMutability": "nonpayable",
      "type": "function"
    }
  ],
  "bytecode": "0x608060405234801561001057600080fd5b50611f23806100206000396000f3fe608060405234801561001057600080fd5b50600436106101cf5760003560e01c806383d8534611610104578063b002249d116100a2578063d7e3c5e411610071578063d7e3c5e4146103ce578063ddca3f43146103e1578063eb266fa8146103eb578063ee1247b81461040057600080fd5b8063b002249d1461037f578063ca15c87314610395578063d4af070a146103a8578063d547741f146103bb57600080fd5b8063874e077a116100de578063874e077a146103265780639010d07c1461033957806391d1485414610364578063a217fddf1461037757600080fd5b806383d85346146102f8578063844c40421461030b5780638456cb591461031e57600080fd5b80632f2ff15d11610171578063564f360e1161014b578063564f360e146102b25780635c975abb146102c557806369fe0e2d146102d05780637e03a447146102e357600080fd5b80632f2ff15d1461028457806336568abe146102975780633f4ba83a146102aa57600080fd5b80630ff32b51116101ad5780630ff32b5114610228578063113830191461023b578063242402ec1461024e578063248a9ca31461026157600080fd5b806301f59d16146101d457806301ffc9a7146101f05780630932a84114610213575b600080fd5b6101dd6103e881565b6040519081526020015b60405180910390f35b6102036101fe36600461195f565b610413565b60405190151581526020016101e7565b61022661022136600461199e565b61043e565b005b61022661023636600461199e565b61049b565b61020361024936600461199e565b6104f8565b61022661025c36600461199e565b610506565b6101dd61026f3660046119bb565b60009081526097602052604090206001015490565b6102266102923660046119d4565b6106f4565b6102266102a53660046119d4565b610719565b610226610797565b6102266102c0366004611a04565b6107b8565b60335460ff16610203565b6102266102de3660046119bb565b6107d9565b6102eb6107fc565b6040516101e79190611a74565b610226610306366004611a87565b61080e565b61022661031936600461199e565b61082f565b61022661088c565b61022661033436600461199e565b6108ab565b61034c610347366004611ab5565b6108cb565b6040516001600160a01b0390911681526020016101e7565b6102036103723660046119d4565b6108ea565b6101dd600081565b610387610915565b6040516101e7929190611ad7565b6101dd6103a33660046119bb565b610936565b6102266103b636600461199e565b61094d565b6102266103c93660046119d4565b6109aa565b6102036103dc36600461199e565b6109cf565b6101dd6101295481565b6103f36109dd565b6040516101e79190611b05565b61022661040e36600461199e565b610b33565b60006001600160e01b03198216635a05180f60e01b1480610438575061043882610ca4565b92915050565b610455600080516020611ece833981519152610cd9565b61046161015e82610ce3565b506040516001600160a01b0382169033907f3159470c494ff47af4729119b2953086f308549b78e843db11d3940a253a786190600090a350565b6104b2600080516020611ece833981519152610cd9565b6104be61015e82610cf8565b506040516001600160a01b0382169033907f67a75721a23c6acfd5903ee3f01fc96776bc5430f4b35fe8f7c44913a8bbe16c90600090a350565b600061043861015e83610d0d565b61051d600080516020611ece833981519152610cd9565b61052961016382610d0d565b61057a5760405162461bcd60e51b815260206004820152601e60248201527f466f784d61726b65743a3a496e76616c696420546f6b656e204f66666572000060448201526064015b60405180910390fd5b60008190506000816001600160a01b0316630ab0210c6040518163ffffffff1660e01b815260040161016060405180830381865afa1580156105c0573d6000803e3d6000fd5b505050506040513d601f19601f820116820180604052508101906105e49190611c1c565b90506105f881608001518260600151610d2f565b6106635760405162461bcd60e51b815260206004820152603660248201527f466f784d61726b65743a3a53656c6c6572206973206f6e206c6f636b6564207460448201527537b5b2b7103a3930b739b332b91031b7b7b63237bbb760511b6064820152608401610571565b610671816080015184610d2f565b6106e5576040805162461bcd60e51b81526020600482015260248101919091527f466f784d61726b65743a3a4f66666572206973207374696c6c2070656e64696e60448201527f67206c6f636b656420746f6b656e207472616e7366657220636f6f6c646f776e6064820152608401610571565b6106ef8282610e20565b505050565b60008281526097602052604090206001015461070f81610cd9565b6106ef8383610ef7565b6001600160a01b03811633146107895760405162461bcd60e51b815260206004820152602f60248201527f416363657373436f6e74726f6c3a2063616e206f6e6c792072656e6f756e636560448201526e103937b632b9903337b91039b2b63360891b6064820152608401610571565b6107938282610f19565b5050565b6107ae600080516020611ece833981519152610cd9565b6107b6610f3b565b565b6107cf600080516020611ece833981519152610cd9565b6107938282610f8d565b6107f0600080516020611ece833981519152610cd9565b6107f981611102565b50565b6060610809610163611166565b905090565b610825600080516020611ece833981519152610cd9565b6107938282611173565b610846600080516020611ece833981519152610cd9565b61085261016082610cf8565b506040516001600160a01b0382169033907f929a406ca0605cb110540d2c100ed3f943ea685087b5ffeeb0669c136bc1a27890600090a350565b6108a3600080516020611ece833981519152610cd9565b6107b66111a3565b6108c2600080516020611ece833981519152610cd9565b6107f9816111e0565b600082815260c9602052604081206108e390836112a4565b9392505050565b60009182526097602090815260408084206001600160a01b0393909316845291905290205460ff1690565b60608061092361015e611166565b9150610930610160611166565b90509091565b600081815260c960205260408120610438906112b0565b610964600080516020611ece833981519152610cd9565b61097061016082610ce3565b506040516001600160a01b0382169033907fce675ca2178fd3e82889d5856e95fe5c8369756f0513e85cb164a0f3bc10f0d390600090a350565b6000828152609760205260409020600101546109c581610cd9565b6106ef8383610f19565b600061043861016083610d0d565b610a0160405180606001604052806060815260200160608152602001600081525090565b61012d546000610a1261012a6112ba565b905060008167ffffffffffffffff811115610a2f57610a2f611baf565b604051908082528060200260200182016040528015610a58578160200160208202803683370190505b50905060008267ffffffffffffffff811115610a7657610a76611baf565b604051908082528060200260200182016040528015610a9f578160200160208202803683370190505b50905060005b83811015610b1157610ab961012a826112c5565b848381518110610acb57610acb611cd5565b60200260200101848481518110610ae457610ae4611cd5565b60209081029190910101919091526001600160a01b03909116905280610b0981611d01565b915050610aa5565b5060408051606081018252928352602083019190915281019290925250919050565b610b3f61016382610d0d565b610b8b5760405162461bcd60e51b815260206004820152601e60248201527f466f784d61726b65743a3a496e76616c696420546f6b656e204f6666657200006044820152606401610571565b60008190506000816001600160a01b0316630ab0210c6040518163ffffffff1660e01b815260040161016060405180830381865afa158015610bd1573d6000803e3d6000fd5b505050506040513d601f19601f82011682018060405250810190610bf59190611c1c565b60608101519091506001600160a01b03163314610c4c5760405162461bcd60e51b81526020600482015260156024820152742337bc26b0b935b2ba1d1d2737ba1029b2b63632b960591b6044820152606401610571565b816001600160a01b0316634b1e58846040518163ffffffff1660e01b8152600401600060405180830381600087803b158015610c8757600080fd5b505af1158015610c9b573d6000803e3d6000fd5b50505050505050565b60006001600160e01b03198216637965db0b60e01b148061043857506301ffc9a760e01b6001600160e01b0319831614610438565b6107f981336112e3565b60006108e3836001600160a01b03841661133c565b60006108e3836001600160a01b03841661142f565b6001600160a01b038116600090815260018301602052604081205415156108e3565b6040516325b5f69d60e21b81526001600160a01b03828116600483015260009184918391908316906396d7da7490602401602060405180830381865afa158015610d7d573d6000803e3d6000fd5b505050506040513d601f19601f82011682018060405250810190610da19190611d1a565b90506000826001600160a01b0316638c8b292b6040518163ffffffff1660e01b8152600401602060405180830381865afa158015610de3573d6000803e3d6000fd5b505050506040513d601f19601f82011682018060405250810190610e079190611d1a565b905042610e148284611d33565b11159695505050505050565b816001600160a01b031663ea8a1af06040518163ffffffff1660e01b8152600401600060405180830381600087803b158015610e5b57600080fd5b505af1158015610e6f573d6000803e3d6000fd5b50505050610e81828260600151611173565b80608001516001600160a01b031681606001516001600160a01b03167fa596f978215cb64ea02e56d558cfce863833b081270204208fbb7d53f023ee9d848460a001518560c001518660e001518761010001518860000151604051610eeb96959493929190611d46565b60405180910390a35050565b610f01828261147e565b600082815260c9602052604090206106ef9082610cf8565b610f238282611504565b600082815260c9602052604090206106ef9082610ce3565b610f4361156b565b6033805460ff191690557f5db9ee0a495bf2e6ff9c91a7834c1ba4fdd244a5e8aa4e537bd38aeae4b073aa335b6040516001600160a01b03909116815260200160405180910390a1565b6001600160a01b0382166110095760405162461bcd60e51b815260206004820152603e60248201527f4665654469737472696275746f723a3a44657374696e6174696f6e204164647260448201527f6573732063616e6e6f7420626520746865207a65726f206164647265737300006064820152608401610571565b600081116110715760405162461bcd60e51b815260206004820152602f60248201527f4665654469737472696275746f723a3a5368617265206d75737420626520677260448201526e6561746572207468616e207a65726f60881b6064820152608401610571565b60008061108061012a856115b4565b909250905081156110d5578083106110b95761109c8184611da2565b61012d60008282546110ae9190611d33565b909155506110ee9050565b6110c38382611da2565b61012d60008282546110ae9190611da2565b8261012d60008282546110e89190611d33565b90915550505b6110fb61012a85856115cc565b5050505050565b6103e88111156111605760405162461bcd60e51b8152602060048201526024808201527f4f66666572466163746f72793a3a46656520686967686572207468616e206d616044820152637846656560e01b6064820152608401610571565b61012955565b606060006108e3836115ea565b61117f61016383610ce3565b506001600160a01b0381166000908152610162602052604090206106ef9083610ce3565b6111ab611646565b6033805460ff191660011790557f62e78cea01bee320cd4e420270b5ea74000d11b0c9f74754ebdbfc544b05a258610f703390565b6000806111ef61012a846115b4565b9092509050816112795760405162461bcd60e51b815260206004820152604960248201527f4665654469737472696275746f723a3a44657374696e6174696f6e206164647260448201527f657373206973206e6f74206120636f6e6669677572656420666565207368617260648201526865206164647265737360b81b608482015260a401610571565b8061012d600082825461128c9190611da2565b9091555061129e905061012a8461168c565b50505050565b60006108e383836116a1565b6000610438825490565b6000610438826116cb565b60008080806112d486866116d6565b909450925050505b9250929050565b6112ed82826108ea565b610793576112fa81611701565b611305836020611713565b604051602001611316929190611dd9565b60408051601f198184030181529082905262461bcd60e51b825261057191600401611e4e565b60008181526001830160205260408120548015611425576000611360600183611da2565b855490915060009061137490600190611da2565b90508181146113d957600086600001828154811061139457611394611cd5565b90600052602060002001549050808760000184815481106113b7576113b7611cd5565b6000918252602080832090910192909255918252600188019052604090208390555b85548690806113ea576113ea611e81565b600190038181906000526020600020016000905590558560010160008681526020019081526020016000206000905560019350505050610438565b6000915050610438565b600081815260018301602052604081205461147657508154600181810184556000848152602080822090930184905584548482528286019093526040902091909155610438565b506000610438565b61148882826108ea565b6107935760008281526097602090815260408083206001600160a01b03851684529091529020805460ff191660011790556114c03390565b6001600160a01b0316816001600160a01b0316837f2f8788117e7eff1d82e926ec794901d17c78024a50270940304540a733656f0d60405160405180910390a45050565b61150e82826108ea565b156107935760008281526097602090815260408083206001600160a01b0385168085529252808320805460ff1916905551339285917ff6391f5c32d9c69d2a47ea670b442974b53935d1edc7fd64eb21e047a839171b9190a45050565b60335460ff166107b65760405162461bcd60e51b815260206004820152601460248201527314185d5cd8589b194e881b9bdd081c185d5cd95960621b6044820152606401610571565b60008080806112d4866001600160a01b0387166118af565b60006115e2846001600160a01b038516846118e9565b949350505050565b60608160000180548060200260200160405190810160405280929190818152602001828054801561163a57602002820191906000526020600020905b815481526020019060010190808311611626575b50505050509050919050565b60335460ff16156107b65760405162461bcd60e51b815260206004820152601060248201526f14185d5cd8589b194e881c185d5cd95960821b6044820152606401610571565b60006108e3836001600160a01b038416611906565b60008260000182815481106116b8576116b8611cd5565b9060005260206000200154905092915050565b6000610438826112b0565b600080806116e485856112a4565b600081815260029690960160205260409095205494959350505050565b60606104386001600160a01b03831660145b60606000611722836002611e97565b61172d906002611d33565b67ffffffffffffffff81111561174557611745611baf565b6040519080825280601f01601f19166020018201604052801561176f576020820181803683370190505b509050600360fc1b8160008151811061178a5761178a611cd5565b60200101906001600160f81b031916908160001a905350600f60fb1b816001815181106117b9576117b9611cd5565b60200101906001600160f81b031916908160001a90535060006117dd846002611e97565b6117e8906001611d33565b90505b6001811115611860576f181899199a1a9b1b9c1cb0b131b232b360811b85600f166010811061181c5761181c611cd5565b1a60f81b82828151811061183257611832611cd5565b60200101906001600160f81b031916908160001a90535060049490941c9361185981611eb6565b90506117eb565b5083156108e35760405162461bcd60e51b815260206004820181905260248201527f537472696e67733a20686578206c656e67746820696e73756666696369656e746044820152606401610571565b60008181526002830160205260408120548190806118de576118d18585611923565b9250600091506112dc9050565b6001925090506112dc565b600082815260028401602052604081208290556115e2848461192f565b600081815260028301602052604081208190556108e3838361193b565b60006108e38383611947565b60006108e3838361142f565b60006108e3838361133c565b600081815260018301602052604081205415156108e3565b60006020828403121561197157600080fd5b81356001600160e01b0319811681146108e357600080fd5b6001600160a01b03811681146107f957600080fd5b6000602082840312156119b057600080fd5b81356108e381611989565b6000602082840312156119cd57600080fd5b5035919050565b600080604083850312156119e757600080fd5b8235915060208301356119f981611989565b809150509250929050565b60008060408385031215611a1757600080fd5b8235611a2281611989565b946020939093013593505050565b600081518084526020808501945080840160005b83811015611a695781516001600160a01b031687529582019590820190600101611a44565b509495945050505050565b6020815260006108e36020830184611a30565b60008060408385031215611a9a57600080fd5b8235611aa581611989565b915060208301356119f981611989565b60008060408385031215611ac857600080fd5b50508035926020909101359150565b604081526000611aea6040830185611a30565b8281036020840152611afc8185611a30565b95945050505050565b6020808252825160608383015280516080840181905260009291820190839060a08601905b80831015611b535783516001600160a01b03168252928401926001929092019190840190611b2a565b5086840151868203601f190160408801528051808352908501935090840191506000905b80821015611b975783518352928401929184019160019190910190611b77565b50506040860151606086015280935050505092915050565b634e487b7160e01b600052604160045260246000fd5b604051610160810167ffffffffffffffff81118282101715611bf757634e487b7160e01b600052604160045260246000fd5b60405290565b805160038110611c0c57600080fd5b919050565b8051611c0c81611989565b60006101608284031215611c2f57600080fd5b611c37611bc5565b611c4083611bfd565b8152611c4e60208401611c11565b6020820152611c5f60408401611c11565b6040820152611c7060608401611c11565b6060820152611c8160808401611c11565b608082015260a083015160a0820152611c9c60c08401611c11565b60c082015260e0838101519082015261010080840151908201526101208084015190820152610140928301519281019290925250919050565b634e487b7160e01b600052603260045260246000fd5b634e487b7160e01b600052601160045260246000fd5b600060018201611d1357611d13611ceb565b5060010190565b600060208284031215611d2c57600080fd5b5051919050565b8082018082111561043857610438611ceb565b6001600160a01b0387811682526020820187905285166040820152606081018490526080810183905260c0810160038310611d9157634e487b7160e01b600052602160045260246000fd5b8260a0830152979650505050505050565b8181038181111561043857610438611ceb565b60005b83811015611dd0578181015183820152602001611db8565b50506000910152565b7f416363657373436f6e74726f6c3a206163636f756e7420000000000000000000815260008351611e11816017850160208801611db5565b7001034b99036b4b9b9b4b733903937b6329607d1b6017918401918201528351611e42816028840160208801611db5565b01602801949350505050565b6020815260008251806020840152611e6d816040850160208701611db5565b601f01601f19169190910160400192915050565b634e487b7160e01b600052603160045260246000fd5b6000816000190483118215151615611eb157611eb1611ceb565b500290565b600081611ec557611ec5611ceb565b50600019019056fea49807205ce4d355092ef5a8a18f56e8913cf4a201fbe287825b095693c21775a26469706673582212201b620a4d1938c5cf00c7bea86dc99082c45e5b7425225f1368f950494fe81abd64736f6c63430008100033",
  "linkReferences": {},
  "deployedLinkReferences": {}
}